:1000000027C100000C94560F0C942B0F0C94000F7A
:100010000C94D50E0C94AA0E0C947F0E0C94540ED6
:100020000C94290E0C94810F0C94810F0C94810F69
:1000300040C100000C948B0F3CC1000036C300008F
:1000400038C1000036C1000034C1000032C10000D8
:1000500030C100002EC100002CC100000C94DF0D47
:1000600028C100000C94900B0C94670B22C1000077
:1000700020C100001EC100001CC100001AC1000008
:1000800018C1000016C1000014C1000012C1000018
:1000900010C100000EC100000CC100000AC1000028
:1000A00008C1000006C1000004C1000002C1000038
:1000B00000C10000FEC00000FCC00000FAC000004B
:1000C000F8C00000F6C00000F4C00000F2C000005C
:1000D000F0C00000EEC00000ECC00000EAC000006C
:1000E000E8C00000CF01D401D901E301ED016602AF
:1000F000F701FF01070211021B02250234023E0232
:100100006602480252025C02510C540C430C470C2C
:100110004D0C8B0C580C5C0C620C660C6A0C700C51
:10012000740C780C8B0C7E0C820C860C0000210069
:10013000240027002A002D003000330001010000B8
:10014000040107010A0100002200250028002B00FD
:100150002E003100340002010000050108010B01EE
:10016000000020002300260029002C002F00320070
:100170000001000003010601090105050505070549
:1001800008080808020202020A0A08080404040413
:10019000010101010101010103030303030303033F
:1001A000040707070C0C0C0C0C0C0C0C02020202CE
:1001B00006060606060606060B0B0B0B0B0B0B0BB7
:1001C0000102102020080810204010204080020169
:1001D000020108040201010204081020408080404E
:1001E000201008040201800402018040201008044D
:1001F00002010804020101020408102040800102EB
:1002000004081020408000000A0B02090C0D0E08A3
:1002100007030401000000000000000000000000CF
:1002200000000000000000000000000000000000CE
:10023000000012111000000000000000000000008B
:1002400000000000000000000000000046127610D0
:1002500011241FBECFEFD1E2DEBFCDBF00E00CBF47
:1002600013E0A0E0B2E0E6E5FFE200E00BBF02C071
:1002700007900D92A432B107D9F725E0A4E2B3E0CC
:1002800001C01D92A238B207E1F711E0C7E2D1E048
:1002900000E006C021970109802FFE010E94691528
:1002A000C632D10780E00807A9F70E94B1100C946C
:1002B0009A17A6CE08952FB7F894809111049091C3
:1002C0001204A0911304B09114042FBF20912E03A7
:1002D00030912F03AC01421B530B4333510530F0D7
:1002E00090932F0380932E0381E0089580E008957A
:1002F0000895CF93DF93EC0160E08A810E94750D31
:1003000060E08C810E94750D19861886DF91CF916F
:100310000895CF93DF93EC0160E08A810E94750D10
:1003200061E08C810E94750D81E090E0998788875B
:10033000DF91CF9108950F931F93CF93DF93FC012B
:1003400077FF02C060E070E0EB016F3F710519F0CC
:1003500014F0CFEFD0E0D587C487D387C28706815A
:10036000178161E0802F0E94A30D209709F4B1C08E
:10037000CF3FD10509F4AFC0F801FF27EA5FFD4F79
:10038000E4918E2F90E0FC013197E231F10508F005
:100390009DC08827EE58FF4F8F4F0C94691584B588
:1003A000806884BDC7BD9FC084B5806284BDC8BD60
:1003B0009AC080918000806880938000D0938900EB
:1003C000C093880090C080918000806280938000FC
:1003D000D0938B00C0938A0086C080918000886093
:1003E00080938000D0938D00C0938C007CC080915E
:1003F000B00080688093B000C093B30074C0809157
:10040000B00080628093B000C093B4006CC0809153
:100410009000806880939000D0939900C0939800DA
:1004200062C080919000806280939000D0939B0086
:10043000C0939A0058C0809190008860809390008B
:10044000D0939D00C0939C004EC08091A000806816
:100450008093A0008091A0008F7B8093A000D09318
:10046000A900C093A8003FC08091A0008062809343
:10047000A000D093AB00C093AA0035C08091A0002B
:1004800088608093A000D093AD00C093AC002BC0D7
:1004900080912001806880932001D0932901C0932E
:1004A000280121C080912001806280932001D09397
:1004B0002B01C0932A0117C080912001886080938E
:1004C0002001D0932D01C0932C010DC0C038D1055F
:1004D00014F460E001C061E0802FDF91CF911F91A3
:1004E0000F910C94750DDF91CF911F910F9108958D
:1004F000CF93DF93FC0120853185232BC9F0EC01DC
:100500000C960E94471088819981F3DE8A819B8135
:10051000F0DEFE01E05CFF4F80819181019731F4B4
:100520008C819D81E6DE8E819F81E3DE19861886AF
:10053000DF91CF9108952091280330912903809174
:10054000EE049091EF04223031051CF062E370E07C
:1005500002C06AE070E00C94B80A65E070E0809137
:10056000EE049091EF040C94B80A65E070E080917D
:10057000EE049091EF04FCC7CF93DF93EC0161E0B0
:100580008A810E94750D60E08C810E94750D82E069
:1005900090E099878887DF91CF9108950F931F93FB
:1005A000CF93DF93EC018B017B876A87695F7F4F75
:1005B00088819981C0DE6A857B858A819B81BBDECB
:1005C000FE01E05CFF4F80819181019761F4B801E9
:1005D0008C819D81B0DEB8018E819F81DF91CF91AA
:1005E0001F910F91A8CEDF91CF911F910F91089588
:1005F000EF92FF920F931F93CF93DF93EC017B0158
:100600008A010C960E94471088E090E099878887BD
:10061000FEA6EDA618AB0FA781E089AB8881998172
:1006200078DE8A819B81A8DFFE01E05CFF4F80813C
:100630009181019731F48C819D816BDE8E819F8148
:100640009BDF6A857B85CE01DF91CF911F910F9152
:10065000FF90EF90A3CFCF93DF93FC0120853185EE
:1006600021303105F9F0EC010C960E944710888189
:1006700099814FDE8A819B814CDEFE01E05CFF4F59
:1006800080819181019731F48C819D8142DE8E8140
:100690009F813FDE6A857B85CE0180DF81E090E02F
:1006A00099878887DF91CF9108951F920F920FB697
:1006B0000F9211240BB60F922F933F934F935F939A
:1006C0006F937F938F939F93AF93BF93EF93FF931A
:1006D00080910804909109048093B20080910B04EA
:1006E00090910C04A0910D04B0910E040196A11DEF
:1006F000B11D80930B0490930C04A0930D04B09350
:100700000E0480910B0490910C04A0910D04B09103
:100710000E04409104045091050460910604709108
:10072000070484179507A607B70710F180910A04FC
:1007300081111EC081E080930A0480910B04909186
:100740000C04A0910D04B0910E04841B950BA60B14
:10075000B70B80930B0490930C04A0930D04B093FB
:100760000E04E0910204F0910304199510920A041A
:10077000FF91EF91BF91AF919F918F917F916F9179
:100780005F914F913F912F910F900BBE0F900FBE35
:100790000F901F901895CF93DF9300D000D0CDB766
:1007A000DEB76CE272E0CE010196CED6CE010196A4
:1007B00030D5CE010196BBD68091F2049091F3041E
:1007C0004ADF26960FB6F894DEBF0FBECDBFDF918D
:1007D000CF910895CF93DF9300D000D0CDB7DEB78F
:1007E0006DE372E0CE010196AFD6CE01019611D530
:1007F000CE0101969CD68091F2049091F3042BDFF8
:1008000026960FB6F894DEBF0FBECDBFDF91CF9115
:1008100008951F93CF93DF9300D000D0CDB7DEB7FC
:10082000E091EE04F091EF04E05AFD4F80818111D8
:100830002DC041DD882351F180912703811126C00D
:1008400080912603882319F0109226031FC011E01F
:100850001093260310922503109224036DE472E096
:10086000CE01019671D6CE010196D3D4CE01019668
:100870005ED610932703E091EE04F091EF0413830A
:10088000128360E574E080819181C7D426960FB60B
:10089000F894DEBF0FBECDBFDF91CF911F910895B9
:1008A000CF93DF9300D000D0CDB7DEB764E672E01F
:1008B000CE01019649D6CE010196ABD4CE01019668
:1008C00036D665E070E08091EE049091EF0450D64A
:1008D00026960FB6F894DEBF0FBECDBFDF91CF9145
:1008E00008951F93CF93DF9300D000D0CDB7DEB72C
:1008F000E091EE04F091EF04E05AFD4F8081811108
:100900002DC0D9DC882351F180912703811126C0A5
:1009100080912503882319F0109225031FC011E050
:1009200010932503109226031092240361E872E0CD
:10093000CE01019609D6CE0101966BD4CE01019667
:10094000F6D510932703E091EE04F091EF041383A2
:1009500012836DEA72E0808191815FD426960FB692
:10096000F894DEBF0FBECDBFDF91CF911F910895E8
:100970001F93CF93DF9300D000D0CDB7DEB7E091C7
:10098000EE04F091EF04E05AFD4F8081811144C0E4
:1009900092DC882309F440C08091270381113CC078
:1009A00080912403882319F01092240335C011E0AC
:1009B00010932403109226031092250369E972E034
:1009C000CE010196C1D5CE01019623D4CE01019668
:1009D000AED510932703E091EE04F091EF0413835A
:1009E000128384E30E944D0D84E30E944D0D80E349
:1009F0000E944D0D8EE20E944D0D84E30E944D0D2C
:100A000082E30E944D0DE091EE04F091EF0465EB5E
:100A100072E08081918101D426960FB6F894DEBFF2
:100A20000FBECDBFDF91CF911F910895CF93DF937C
:100A300000D000D0CDB7DEB760EB72E0CE010196FA
:100A400083D5CE010196E5D3CE01019670D5E09114
:100A5000EE04F091EF04128281E083838081918122
:100A6000FADD1092270326960FB6F894DEBF0FBE6C
:100A7000CDBFDF91CF910895EF92FF920F931F9317
:100A8000CF93DF93CDB7DEB72C970FB6F894DEBFC8
:100A90000FBECDBFE091EE04F091EF04DF01A05A4C
:100AA000BD4F8C9181119DC081E0838382832FB7DC
:100AB000F8948091110490911204A0911304B091C4
:100AC00014042FBF20912A0330912B03AC01421B49
:100AD000530B9A01293E334058F42091280330915A
:100AE00029032F5F3F4F309329032093280304C02D
:100AF0001092290310922803AA27BB2780932A0368
:100B000090932B03A0932C03B0932D03E090EE045D
:100B1000F090EF04F70100811181F8018085918543
:100B2000019709F45EC0C8010C960E94471088EC3A
:100B300090E0F80196A785A78BE992E090AB87A794
:100B400081E081AB81E090E0918780878081918115
:100B5000E0DBF80182819381DCDBF801E05CFF4F90
:100B600080819181019741F4F80184819581D1DBE5
:100B7000F80186819781CDDBF80162857385C80114
:100B80000DDD66E873E0CE010796DED4BE01695F35
:100B90007F4FCE010196D0D4F701E45AFD4F8081FA
:100BA00091818336910521F48FEF9FEF91838083AC
:100BB000208131812F5F3F4F3183208346E0429F68
:100BC000C001439F900D11240496BE016F5F7F4FBB
:100BD0008E0D9F1D97D4CE010196A9D4CE01079604
:100BE000A6D42C960FB6F894DEBF0FBECDBFDF9112
:100BF000CF911F910F91FF90EF900895CF92DF92C8
:100C0000EF92FF920F931F93CF93DF93CDB7DEB791
:100C100068970FB6F894DEBF0FBECDBF83E13DD716
:100C20008C0182E13AD7012B59F4E0910F04F09145
:100C30001004208531852130310511F4CF010CC01D
:100C4000892B61F480910F0490911004FC012085A0
:100C500031852230310511F44BDC22C285E194E06C
:100C6000C6D5181619060CF01BC264EE72E0CE0150
:100C700043966AD408D397FD1DC08B339105D1F0FC
:100C800089831A820F89188D0F5F1F4FB801CE011B
:100C90004396F2D3882371F32B893C898F89988DF1
:100CA000BE016F5F7F4F820F931F0E949317188FB3
:100CB0000F8BE0CF8F89988D892B09F4EEC1CE017F
:100CC000439696D28F89988D892B71F00B891C8958
:100CD0006AE370E0C8010E947F17009729F09C0129
:100CE000201B310B890102C00FEF1FEF64EE72E091
:100CF000CE010D9629D464EE72E0CE01079624D47D
:100D00000F3F3FEF130739F1980140E050E0BE017B
:100D10006D5E7F4FCE01019689D4BE016F5F7F4F1C
:100D2000CE010D96EFD2CE01019601D42F89388DD8
:100D3000A8014F5F5F4FBE016D5E7F4FCE010196F0
:100D400075D4BE016F5F7F4FCE010796DBD2CE0117
:100D50000196EDD306C0BE016D5E7F4FCE010D96AC
:100D6000D1D300910F04109110040115110509F45D
:100D70008EC16EEB74E0CE010D96FED2892B19F474
:100D8000C80169DC84C168EB74E0CE010D96F4D231
:100D9000892B49F5F80180859185029709F477C17F
:100DA000C8010C960E944710F80180819181E4DB14
:100DB000F80182819381E0DBF801E05CFF4F8081E4
:100DC0009181019741F4F80184819581D5DBF80187
:100DD00086819781D1DBF80162857385C801DEDBEE
:100DE00082E090E02AC066ED74E0CE010D96C4D298
:100DF000892B39F5F80180859185049709F447C15D
:100E00008081918186DAF80182819381B5DBF801D6
:100E1000E05CFF4F80819181019741F4F80184816A
:100E2000958167DAF8018681978173DAF801628526
:100E30007385C801B3DB84E090E0F8019187808777
:100E400026C16AEC74E0CE010D9696D2892B49F545
:100E5000F80180859185059709F419C1C8010C96A0
:100E60000E944710F8018081918186DBF801828120
:100E700093814FDAF801E05CFF4F80819181019707
:100E800041F4F8018481958144DAF80186819781E3
:100E900030DAF80162857385C80180DB85E090E077
:100EA000CCCF62EB74E0CE010D9666D2892B19F49B
:100EB000C8011EDBECC068EE74E0CE010D965CD27A
:100EC000892B09F4E4C06CED74E0CE010D9654D288
:100ED000892B69F5BE01695F7F4FCE0101962CD346
:100EE000CE0101960E949410182FCE0101961FD3B7
:100EF000112309F4CCC0BE01695F7F4FCE0101967A
:100F00001BD3CE01019685D1CE01019610D38F81DE
:100F10009885009719F00E94D11403C060E070E03A
:100F2000CB0180910F049091100438DBB0C060EDCC
:100F300074E0CE010D9620D2892BC1F5BE01695F08
:100F40007F4FCE010196F8D2CE0101960E949410F7
:100F5000182FCE010196EBD2112309F498C0BE01DF
:100F6000695F7F4FCE010196E7D2CE01019651D144
:100F7000CE010196DCD28F819885009719F00E94EE
:100F8000D11403C060E070E0CB01E0910F04F09158
:100F90001004408551854830510509F478C04AEE67
:100FA00053E0CF0125DB67EC72E068C064EC74E0CD
:100FB000CE010D96E1D1892B09F069C0BE01695FB0
:100FC0007F4FCE010196B8D2CE0101960E949410B7
:100FD000182FCE010196ABD2112309F458C060ED51
:100FE00072E0CE010196B0D2CE01019612D1CE01AF
:100FF00001969DD28F819885009729F00E94D11487
:101000006B017C0103C0C12CD12C760100910F042F
:1010100010911004F80180859185079709F437C075
:10102000C8010C960E94471087E090E0F801918774
:101030008087D7A2C6A28BEC93E091A780A781E01E
:1010400082A78081918198DAF8018281938161D9A8
:10105000F801E05CFF4F80819181019741F4F80134
:101060008481958156D9F8018681978142D9F8010A
:1010700062857385C80192DA68ED72E0CE0101964F
:1010800063D2CE010196C5D0CE01019650D2CE01D9
:1010900007964DD2CE010D964AD2CE01439647D245
:1010A00068960FB6F894DEBF0FBECDBFDF91CF912B
:1010B0001F910F91FF90EF90DF90CF9008950895CA
:1010C000CF92DF92EF92FF920F931F93CF93DF9314
:1010D0006C017A018B01C0E0D0E0CE15DF0581F014
:1010E000D8016D918D01D601ED91FC910190F081B7
:1010F000E02DC6011995892B11F02196EECF7E01C6
:10110000C701DF91CF911F910F91FF90EF90DF907A
:10111000CF900895CF93DF93EC0188819981009758
:1011200011F00E940916198218821D821C821B82EE
:101130001A82DF91CF91089585E194E058D321E0A0
:10114000892B09F420E0822F0895EF92FF920F93EC
:101150001F93CF93DF93EC0181E0888F9B8D8C8D63
:10116000981305C0E889F989808185FD25C0F62E90
:101170000B8D10E00F5F1F4F0F731127E02E8C8D2A
:10118000E8120BC00FB607FCFACFE889F989808115
:1011900085FFF5CFCE013ED4F2CF8B8DFE01E80F57
:1011A000F11DE35AFF4FF0829FB7F8940B8FEA8945
:1011B000FB89808180620AC09FB7F894EE89FF891D
:1011C0006083E889F98980818370806480839FBF10
:1011D00081E090E0DF91CF911F910F91FF90EF9010
:1011E000089542E050E062EE72E085E194E068CF5D
:1011F000CF93DF93FC01448155816081718185E14A
:1012000094E05EDFEC01EDDF8C0F9D1FDF91CF914D
:101210000895EEDF85E194E01FC40F931F93CF93F1
:10122000DF93FC01208531852230310539F18B01B6
:10123000EC010C962CD78AE090E09FA38EA319A70F
:1012400008A781E08AA782E090E099878887888153
:10125000998192D98A819B818FD9FE01E05CFF4FF1
:1012600080819181019751F48C819D8185D98E81F6
:101270009F81DF91CF911F910F917EC9DF91CF9117
:101280001F910F9108952FB7F894809111049091B8
:101290001204A0911304B09114042FBF80931D0475
:1012A00090931E04A0931F04B093200485E194E062
:1012B0007CD297FF26C02FB7F894809111049091AB
:1012C0001204A0911304B09114042FBF40911D0487
:1012D00050911E0460911F0470912004841B950B93
:1012E000A60BB70B4091190450911A0460911B048E
:1012F00070911C0484179507A607B707B8F28FEF03
:101300009FEF08950F931F93CF93DF938C01EB0111
:10131000FC0180819181009739F0688179816115A4
:101320007105A1F40E94091688819981F8019183C1
:1013300080838A819B81938382838C819D81958325
:101340008483198218821B821A820FC0F80142819D
:1013500053812C813D814217530720F30E9493173C
:101360008C819D81F801958384831D821C82DF918D
:10137000CF911F910F910895CF93DF93DC01ED91F1
:10138000FC91EB01A881B981309711F01097C9F455
:10139000109759F0EB012C813D81232B31F08C917A
:1013A00090E091958195910914C0309781F0DC010E
:1013B00014968D919C911597892B49F0808190E02E
:1013C00008C0BD01CF01DF91CF910C948A1780E056
:1013D00090E0DF91CF9108958F929F92AF92BF924C
:1013E0000F931F93CF93DF93CDB7DEB7A1970FB6BF
:1013F000F894DEBF0FBECDBF19A2423008F44AE018
:101400008E010F5D1F4F842E912CA12CB12CA501B4
:1014100094010E943815E62FB901CA010150110943
:10142000EA3014F4E05D01C0E95CD801EC93232BB1
:10143000242B252B61F70115110569F0F8010190A6
:101440000020E9F73197AF01401B510BB80185E14E
:1014500094E036DE02C080E090E0A1960FB6F894EA
:10146000DEBF0FBECDBFDF91CF911F910F91BF9017
:10147000AF909F908F9008950F931F93CF93DF931A
:10148000EC0188819981009729F02A813B812617F8
:10149000370788F48B016F5F7F4F0E949216009789
:1014A00061F0998388831B830A832C813D81232BE0
:1014B00011F4FC01108281E001C080E0DF91CF9146
:1014C0001F910F910895EF92FF920F931F93CF9367
:1014D000DF93EC017B018A01BA01CEDF811103C0E9
:1014E000CE0118DE07C01D830C83B7018881998166
:1014F0000E949317CE01DF91CF911F910F91FF9022
:10150000EF900895CF93DF93EC01FB0186179707C7
:1015100051F0608171816115710521F0448155811F
:10152000D2DF01C0F7DDCE01DF91CF910895FC013C
:10153000808191810C940916FC0111821082138222
:10154000128215821482DECFFC0111821082138276
:101550001282158214826115710549F0FB01019018
:101560000020E9F73197AF01461B570BACCF089528
:10157000EF92FF920F931F93CF93DF93CDB7DEB718
:101580002C970FB6F894DEBF0FBECDBFDC01ED91F6
:10159000FC91208531852430310509F43AC08B0156
:1015A0007C012830310521F046E155E0CF0120D8FB
:1015B000B8016B517D4FCE010796C6DFBE01695F52
:1015C0007F4FCE010196B8DFF701E45AFD4F8081CD
:1015D00091818336910521F48FEF9FEF9183808372
:1015E000208131812F5F3F4F3183208346E0429F2E
:1015F000C001439F900D11240496BE016F5F7F4F81
:101600008E0D9F1D7FDFCE01019691DFCE010796E3
:101610008EDF2C960FB6F894DEBF0FBECDBFDF91E4
:10162000CF911F910F91FF90EF900895BF92CF92AD
:10163000DF92EF92FF920F931F93CF93DF937C0182
:101640006B01EA0189012417350720F48D2FE90188
:10165000042F182F64EE72E0C70176DFD6011496CE
:101660008D919C911597C817D90730F58017910770
:1016700008F48C01D601ED91FC911197E00FF11F58
:10168000B08010826D917C916C0F7D1F611571058A
:1016900059F0FB0101900020E9F73197AF01461B9B
:1016A000570BC70110DF02C0C70134DDD601ED9131
:1016B000FC91E00FF11FB082C701DF91CF911F9124
:1016C0000F91FF90EF90DF90CF90BF9008951F9201
:1016D0000F920FB60F9211240BB60F922F933F93D8
:1016E0004F935F936F937F938F939F93AF93BF932A
:1016F000EF93FF9385E194E08DD1FF91EF91BF913E
:10170000AF919F918F917F916F915F914F913F9199
:101710002F910F900BBE0F900FBE0F901F9018953A
:101720001F920F920FB60F9211240BB60F922F93A8
:101730008F939F93EF93FF93E0912504F0912604FC
:101740008081E0912B04F0912C0482FD12C09081E5
:1017500080912E048F5F8F7320912F04821751F098
:10176000E0912E04F0E0EB5EFB4F958F80932E040A
:1017700001C08081FF91EF919F918F912F910F90E8
:101780000BBE0F900FBE0F901F901895FC01538D4C
:10179000448D252F30E0842F90E0821B930B54174B
:1017A00010F0CF96089501970895FC01918D828DD8
:1017B000981761F0828DDF01A80FB11D5D968C91A5
:1017C000928D9F5F9F73928F90E008958FEF9FEFB0
:1017D0000895FC01918D828D981731F0828DE80F6C
:1017E000F11D858D90E008958FEF9FEF0895FC0126
:1017F000918D228D892F90E0805C9F4F821B9109F3
:101800008F739927089598DC811125C080E090E0BE
:10181000892B41F080E090E0892B21F00E940000AC
:1018200081111BC080E090E0892B41F080E090E0C6
:10183000892B21F00E940000811112C080E090E00D
:10184000892B99F080E090E0892B79F00E940000CC
:10185000811109C00895D2D9D9CF0E940000E2CFEA
:101860000E940000EBCF0C940000089590E0FC0172
:101870003197E231F10508F04EC08827EC57FF4F51
:101880008F4F0C946915809180008F7703C08091F1
:1018900080008F7D80938000089580918000877FF5
:1018A000F9CF84B58F7702C084B58F7D84BD08954C
:1018B0008091B0008F7703C08091B0008F7D8093BE
:1018C000B0000895809190008F7707C080919000BC
:1018D0008F7D03C080919000877F80939000089552
:1018E0008091A0008F7707C08091A0008F7D03C0FA
:1018F0008091A000877F8093A000089580912001AF
:101900008F7707C0809120018F7D03C080912001D7
:10191000877F809320010895089580E090E00895E6
:10192000CF93DF93C091F004D091F1048E8D882382
:10193000B1F0888D998D0196998F888F2A8D3B8D76
:101940008217930761F4EC8DFD8D309741F080E0B4
:1019500090E019951D8E1C8E1E8E198E188E888112
:10196000998101969983888388A999A9019699AB51
:1019700088ABDF91CF9108950E947217CF92DF92CA
:10198000EF92FF92CF93DF93C091F004D091F104D6
:101990008DA1882371F18F8D98A1019698A38F8FC7
:1019A00029A13AA18217930721F5EBA1FCA180E0C0
:1019B00090E01995CF8CD8A00D2C000CEE08FF08F4
:1019C000F7FE0DC06DE285E194E0BFDB6627772767
:1019D000CB016C197D098E099F094AE003C04AE0DA
:1019E000C701B601F9DCFDDB1CA21BA21DA218A2D7
:1019F0001F8E8A819B8101969B838A838AA99BA9DA
:101A000001969BAB8AABDF91CF91FF90EF90DF9077
:101A1000CF900895FC01848DDF01A80FB11DA35A5A
:101A2000BF4F2C91848D90E001968F739927848FFE
:101A3000A689B7892C93A089B1898C918370806421
:101A40008C93938D848D981306C00288F389E02DC2
:101A500080818F7D80830895CF93DF93EC01888D03
:101A60008823C1F0EA89FB89808185FD05C0A889AA
:101A7000B9898C9186FD0EC00FB607FCF5CF808129
:101A800085FFF2CFA889B9898C9185FFEDCFCE0172
:101A9000C1DFE8CFDF91CF910895CF93DF93282F57
:101AA00030E0F901EA5FFD4F8491F901E054FE4F07
:101AB000D491F901E658FE4FC491CC2389F08111ED
:101AC000D5DEEC2FF0E0EE0FFF1FE05AFE4FA591A0
:101AD000B491EC91ED2381E090E021F480E002C02C
:101AE00080E090E0DF91CF9108951F93CF93DF9333
:101AF000282F30E0F901EA5FFD4F8491F901E054AD
:101B0000FE4FD491F901E658FE4FC491CC23B9F0B1
:101B1000162F8111ABDEEC2FF0E0EE0FFF1FEA5B1A
:101B2000FE4FA591B4919FB7F894111104C08C9108
:101B3000D095D82302C0EC91DE2BDC939FBFDF91C0
:101B4000CF911F910895CF93DF9390E0FC01E05473
:101B5000FE4F2491FC01E658FE4F8491882361F1E9
:101B600090E0880F991FFC01E45DFE4FC591D49170
:101B7000FC01EA5BFE4FA591B491611109C09FB7CA
:101B8000F8948881209582238883EC912E230BC0C2
:101B9000623061F49FB7F8948881322F30958323A7
:101BA0008883EC912E2B2C939FBF06C08FB7F8949F
:101BB000E8812E2B28838FBFDF91CF9108951F924C
:101BC0000F920FB60F9211242F933F938F939F93F1
:101BD000AF93BF938091110490911204A0911304CC
:101BE000B091140430917D0523E0230F2D3720F4AC
:101BF0000196A11DB11D05C026E8230F0296A11D67
:101C0000B11D20937D058093110490931204A0933D
:101C10001304B09314048091790590917A05A091F2
:101C20007B05B0917C050196A11DB11D80937905BE
:101C300090937A05A0937B05B0937C05BF91AF91FB
:101C40009F918F913F912F910F900FBE0F901F90FA
:101C500018951F920F920FB60F9211240BB60F9288
:101C60002F933F934F935F936F937F938F939F93A4
:101C7000AF93BF93EF93FF93E0910E02F0910F02A9
:101C80001995FF91EF91BF91AF919F918F917F91A6
:101C90006F915F914F913F912F910F900BBE0F90DD
:101CA0000FBE0F901F9018951F920F920FB60F92B4
:101CB00011240BB60F922F933F934F935F936F9323
:101CC0007F938F939F93AF93BF93EF93FF93E09195
:101CD0000C02F0910D021995FF91EF91BF91AF9118
:101CE0009F918F917F916F915F914F913F912F9134
:101CF0000F900BBE0F900FBE0F901F9018951F9264
:101D00000F920FB60F9211240BB60F922F933F93A1
:101D10004F935F936F937F938F939F93AF93BF93F3
:101D2000EF93FF93E0910202F09103021995FF9166
:101D3000EF91BF91AF919F918F917F916F915F9143
:101D40004F913F912F910F900BBE0F900FBE0F90B0
:101D50001F9018951F920F920FB60F9211240BB679
:101D60000F922F933F934F935F936F937F938F9334
:101D70009F93AF93BF93EF93FF93E0910002F09195
:101D800001021995FF91EF91BF91AF919F918F91B2
:101D90007F916F915F914F913F912F910F900BBE6B
:101DA0000F900FBE0F901F9018951F920F920FB6B5
:101DB0000F9211240BB60F922F933F934F935F9383
:101DC0006F937F938F939F93AF93BF93EF93FF9303
:101DD000E0910A02F0910B021995FF91EF91BF91EA
:101DE000AF919F918F917F916F915F914F913F91B3
:101DF0002F910F900BBE0F900FBE0F901F90189554
:101E00001F920F920FB60F9211240BB60F922F93C1
:101E10003F934F935F936F937F938F939F93AF9372
:101E2000BF93EF93FF93E0910802F0910902199597
:101E3000FF91EF91BF91AF919F918F917F916F91A2
:101E40005F914F913F912F910F900BBE0F900FBE5E
:101E50000F901F9018951F920F920FB60F9211249A
:101E60000BB60F922F933F934F935F936F937F9394
:101E70008F939F93AF93BF93EF93FF93E0910602ED
:101E8000F09107021995FF91EF91BF91AF919F914A
:101E90008F917F916F915F914F913F912F910F9013
:101EA0000BBE0F900FBE0F901F9018951F920F92B0
:101EB0000FB60F9211240BB60F922F933F934F93AF
:101EC0005F936F937F938F939F93AF93BF93EF93A2
:101ED000FF93E0910402F09105021995FF91EF91B3
:101EE000BF91AF919F918F917F916F915F914F9132
:101EF0003F912F910F900BBE0F900FBE0F901F9030
:101F000018951F920F920FB60F9211240F900FBECB
:101F10000F901F9018951F920F920FB60F921124D9
:101F20000BB60F922F933F934F935F936F937F93D3
:101F30008F939F93AF93BF93EF93FF938091310360
:101F4000ACDD20913503309136032F5F3F4F309346
:101F500036032093350390913403953618F096E0BC
:101F600090933003909130039430C9F128F492306B
:101F700069F09330D1F05EC0953009F451C09630CD
:101F800009F058C091E09093010451C0811152C0F2
:101F900020913503309136032436310508F442C0D0
:101FA00010920104109234031CC0813009F042C029
:101FB000E091340391E09E0F90933403F0E0209180
:101FC000350330913603EE0FFF1FE05DFC4F308785
:101FD0002783109236031092350394E029C08111B3
:101FE00017C0E091340391E09E0F90933403F0E02A
:101FF0002091350330913603EE0FFF1FE05DFC4F5B
:1020000030872783109236031092350393E010C077
:1020100020913503309136032536310558F007C03D
:10202000811108C0109236031092350303C095E069
:1020300090933003909133039923B1F081110AC03A
:1020400080913203882321F08091320361E009C03E
:102050002F9A0AC080913203882329F0809132039D
:1020600060E043DD01C02F98FF91EF91BF91AF91E8
:102070009F918F917F916F915F914F913F912F91A0
:102080000F900BBE0F900FBE0F901F901895FC0184
:10209000138E128E158E148E168E118E108E12A225
:1020A00011A214A213A215A210A2178E08951F93B5
:1020B000CF93DF93FC01D62FC42F122F628373833B
:1020C000448355832683378361E08D2F3CDD61E0B7
:1020D0008C2F39DD61E0812F36DD60E08D2F05DD4D
:1020E00060E08C2FDF91CF911F91FFCC82EB94E0C9
:1020F0001EDA88EB94E01BDA8EEB94E018DA84ECBD
:1021000094E015DA8AEC94E012DA80ED94E00FDACC
:1021100086ED94E00CDA8CED94E009DA82EE94E03E
:1021200006DA88EE94E003CAFC016481758120E040
:1021300030E02617370789F040815181411551055C
:1021400029F0DA01A20FB31F9C9101C090E09053D7
:102150009A3028F42F5F3F4FECCF81E0089580E064
:102160000895CF93DF9300D000D0CDB7DEB7789439
:1021700084B5826084BD84B5816084BD85B582608C
:1021800085BD85B5816085BD80916E00816080933D
:102190006E001092810080918100826080938100A6
:1021A00080918100816080938100809180008160B6
:1021B000809380008091B10084608093B100809111
:1021C000B00081608093B000809191008260809324
:1021D00091008091910081608093910080919000A6
:1021E0008160809390008091A10082608093A10023
:1021F0008091A10081608093A1008091A000816006
:102200008093A000809121018260809321018091C0
:102210002101816080932101809120018160809360
:10222000200180917A00846080937A0080917A0006
:10223000826080937A0080917A00816080937A0036
:1022400080917A00806880937A001092C100E091BA
:102250002504F091260412E01083E0912104F0910E
:1022600022041082E0912304F091240480E1808311
:1022700010922D04E0912904F0912A0486E08083D5
:10228000E0912704F0912804808180618083E091AF
:102290002704F0912804808188608083E0912704DE
:1022A000F0912804808180688083E0912704F09178
:1022B000280480818F7D808388E195E090931004CD
:1022C00080930F049093F5048093F40481E090E0F0
:1022D00008D42DE020933103109233039093F90436
:1022E0008093F80482E090E0FCD329E030E0FC0128
:1022F000318320839093F7048093F604F89410932D
:10230000B0001093B10084E68093B3001092B20045
:1023100010937000789410933003109234038091DE
:10232000310360E010DC61E08FE10DDC61E081E20F
:102330000ADC61E083E207DC60E08CE004DC60E062
:1023400085E401DC8091A100887F85608093A100F5
:102350006BEE72E0CE010196F7D8CE0101960E9495
:102360000909CE010196E3D888EE93E0A0E0B0E041
:102370008093040490930504A0930604B09307048B
:1023800088E791E0909303048093020480917000A9
:102390008E7F809370008091B0008C7F8093B0001E
:1023A0008091B100877F8093B1008091B6008F7DCE
:1023B0008093B600809170008D7F80937000809133
:1023C000B10084608093B1008091B1008C7F8093D4
:1023D000B10086E090E09093090480930804109285
:1023E0000B0410920C0410920D0410920E04109223
:1023F0000A0480910804909109048093B2008091AE
:10240000700081608093700068EC70E088E195E076
:102410000E94CE0280917B00877F80937B0080E4C6
:1024200080937C0080917A00806480937A00809110
:102430007A0086FDFCCF609178008091790070E091
:10244000782B072E000C880B990B611571058105FF
:10245000910509F09DD288E195E00E942B0383E16C
:102460001CDB6C0182E119DB8C0185E116DB7C0150
:10247000CD2811F40E94B804EF2811F40E947104D1
:10248000012B11F40E940904BED9E9CFEF92FF920B
:102490000F931F93CF93DF93109218041092170499
:1024A00088EE93E0A0E0B0E08093190490931A04C2
:1024B000A0931B04B0931C048EE192E09093160449
:1024C0008093150485EC90E090932204809321047E
:1024D00084EC90E0909324048093230480EC90E0BB
:1024E000909326048093250481EC90E09093280437
:1024F0008093270482EC90E090932A04809329042F
:1025000086EC90E090932C0480932B0410922E0480
:1025100010922F04109230041092310462E073E0A4
:1025200088EE94E011D86AE073E082EE94E00CD873
:1025300064E173E08CED94E007D868E173E086ED28
:1025400094E002D867E173E080ED94E00E94A40A71
:102550006BE173E08AEC94E00E94A40A6AE173E004
:1025600084EC94E00E94A40A6DE173E08EEB94E0A9
:102570000E94A40A6FE173E088EB94E00E94A40A31
:1025800061E273E082EB94E00E94A40A09E615E0A0
:1025900010926A05109269051092720510927105E9
:1025A00010927405109273051092760510927505BD
:1025B00026E030E040E250E06EE170E0C80177DDF7
:1025C000CBE5D5E010925C0510925B051092640596
:1025D00010926305109266051092650510926805C9
:1025E0001092670527E030E04AE150E06CE170E0CE
:1025F000CE015DDD10922105109220051092230579
:10260000109222051092250510922405109227059C
:1026100010922605109228051092290510922A057D
:1026200010922B0510922C0510922D0510922E055C
:1026300010922F051092300510923105109232053C
:10264000109233051092340510923505109236051C
:1026500010923705109238051092390510923A05FC
:1026600010923B0510923D0510923C0510925105C9
:102670001092500510925305109252051092550574
:1026800010925405109257051092560582E090E082
:10269000909359058093580510925A05D0931905C7
:1026A000C093180510931B0500931A0588E195E067
:1026B0009093F3048093F20484E295E09093F10404
:1026C0008093F00410934F0500934E05D0934D0571
:1026D000C0934C0580E99CE0909301028093000236
:1026E00080916A008C7F826080936A00EC9A8EEB06
:1026F0009CE0909303028093020280916A00837FA2
:10270000886080936A00ED9A8AE591E090934B058A
:1027100080934A0581E692E0E4D1EC011A821B82A3
:102720008C010C5F1F4F7C0184EAE81A8DEFF80AD8
:1027300064EE72E0C8010E94A40A0A5F1F4FE0160F
:10274000F106B1F78FEF9FEFF70191838083FE01D0
:10275000E25AFD4F118210823296108288E195E094
:1027600099838883D093EF04C093EE0460E082E203
:10277000EAD960E084E2E7D960E086E2E4D960E08B
:1027800088E2E1D960E08AE2DED960E08CE2DBD960
:1027900060E08EE2D8D960E080E3D5D960E082E3E2
:1027A000D2D960E084E3CFD962E085E1CCD962E0A0
:1027B00084E1C9D962E082E1C6D962E083E1C3D98C
:1027C00081E794E090930502809304028091690070
:1027D0008C7F816080936900E89A8CE395E0909308
:1027E00007028093060280916900837F8460809352
:1027F0006900E99A89E094E090930B0280930A02C1
:10280000809169008F73806480936900EB9A88EBF4
:1028100094E09093090280930802809169008F7C74
:10282000806180936900EA9A10921705109216054C
:1028300010920A0510920B0510920E0510920D05CC
:102840001092100510920F051092120510921105AA
:10285000109213051092140510921505DF91CF9177
:102860001F910F91FF90EF9008958F929F92AF92DA
:10287000BF92CF92DF92EF92FF92CF93DF93EC0162
:10288000688179818A819B81611571058105910536
:1028900021F464E279ED8BE597E02DE133EF41E03F
:1028A00050E0BAD049015A019B01AC01A7EAB1E45A
:1028B000CFD06B017C01ACEEB4EFA5019401D4D074
:1028C000DC01CB018C0D9D1DAE1DBF1DB7FF03C0EC
:1028D0000197A109B04888839983AA83BB83BC016F
:1028E000CD019F77DF91CF91FF90EF90DF90CF9058
:1028F000BF90AF909F908F9008958F929F92AF92CC
:10290000BF92CF92DF92EF92FF926091100270918E
:1029100011028091120290911302611571058105D7
:10292000910521F464E279ED8BE597E02DE133EF39
:1029300041E050E071D049015A019B01AC01A7EA86
:10294000B1E486D06B017C01ACEEB4EFA50194013B
:102950008BD0DC01CB018C0D9D1DAE1DBF1DB7FFC3
:1029600003C00197A109B04880931002909311020F
:10297000A0931202B0931302BC01CD019F77FF9088
:10298000EF90DF90CF90BF90AF909F908F90089581
:1029900060931002709311028093120290931302BD
:1029A00008951F93FC0199278827BC01E894119191
:1029B0001032E9F3193010F01E30C8F31B3249F021
:1029C0001D3241F4689405C012D0610F711D811D44
:1029D000911D119110531A30B8F33EF490958095E3
:1029E000709561957F4F8F4F9F4F1F910895592F7D
:1029F000482F372F262F660F771F881F991F660FC6
:102A0000771F881F991F620F731F841F951F660F02
:102A1000771F881F991F0895052E97FB16F40094C1
:102A20000FD057FD05D024D007FC02D046F408C0D3
:102A300050954095309521953F4F4F4F5F4F0895EA
:102A400090958095709561957F4F8F4F9F4F08951A
:102A500031D0A59F900DB49F900DA49F800D911D26
:102A600011240895B7FFF4CFF3DF821B930B089571
:102A7000A1E21A2EAA1BBB1BFD010DC0AA1FBB1F82
:102A8000EE1FFF1FA217B307E407F50720F0A21BF4
:102A9000B30BE40BF50B661F771F881F991F1A9461
:102AA00069F760957095809590959B01AC01BD018B
:102AB000CF010895A29FB001B39FC001A39F700DE5
:102AC000811D1124911DB29F700D811D1124911D36
:102AD0000895EE0FFF1F881F8BBF0790F691E02D22
:102AE00019940F931F93CF93DF938230910510F4C5
:102AF00082E090E0E0918005F091810520E030E0F7
:102B0000A0E0B0E0309719F140815181028113813A
:102B100048175907C8F08417950769F4109731F0E2
:102B200012960C93129713961C9327C0009380055E
:102B30001093810522C02115310519F04217530762
:102B400018F49A01BD01EF01DF01F801DBCF211577
:102B50003105F9F0281B390B2430310580F48A81C6
:102B60009B816115710521F0FB019383828304C071
:102B70009093810580938005FE01329644C0FE014A
:102B8000E20FF31F819391932250310939832883F7
:102B90003AC020917E0530917F05232B41F420918E
:102BA00016023091170230937F0520937E05209105
:102BB0001402309115022115310541F42DB73EB7AD
:102BC0004091180250911902241B350BE0917E05AB
:102BD000F0917F05E217F307A0F42E1B3F0B281797
:102BE000390778F0AC014E5F5F4F2417350748F086
:102BF0004E0F5F1F50937F0540937E058193919305
:102C000002C0E0E0F0E0CF01DF91CF911F910F9182
:102C10000895CF93DF93009709F481C0FC013297A8
:102C200013821282A0918005B0918105109781F4E2
:102C300020813181820F931F20917E0530917F0585
:102C40002817390751F5F0937F05E0937E0567C09B
:102C5000ED0120E030E0CE17DF0740F44A815B81D0
:102C60009E0141155105F1F0EA01F5CFD383C283EE
:102C700040815181840F951FC817D90759F4888165
:102C80009981840F951F0296918380838A819B810D
:102C9000938382832115310529F4F0938105E09314
:102CA00080053DC0E901FB83EA8349915991C40F36
:102CB000D51FEC17FD0761F480819181840F951F6A
:102CC0000296E90199838883828193819B838A8319
:102CD000E0E0F0E012968D919C911397009719F027
:102CE000FD01DC01F7CF8D919C9111979D012E5F25
:102CF0003F4F820F931F20917E0530917F0528174B
:102D0000390769F4309729F41092810510928005F3
:102D100002C013821282B0937F05A0937E05DF91DB
:102D2000CF9108956F927F928F929F92AF92BF92B0
:102D3000CF92DF92EF92FF920F931F93CF93DF9387
:102D4000009781F4CB01DF91CF911F910F91FF90FC
:102D5000EF90DF90CF90BF90AF909F908F907F903B
:102D60006F90BFCEFC01E60FF71F9C012250310986
:102D7000E217F30708F4A5C0EC01D9010D911C91ED
:102D8000119706171707A8F00530110508F497C02A
:102D9000C80104978617970708F491C002501109DB
:102DA000061B170B019311936D937C93CF0131DFB9
:102DB00086C05B01A01AB10A4C01800E911EA09141
:102DC0008005B0918105612C712CE12CF12C1097BC
:102DD00009F446C08D919C911197A815B905B1F5DC
:102DE0006C0142E0C40ED11CCA14DB0478F14C0122
:102DF0008A189B08640142E0C40ED11C1296BC9054
:102E000012971396AC91B5E0CB16D10440F0B28284
:102E1000A38391828082D9016D937C9309C00E5F58
:102E20001F4F800F911FF90191838083EB2DFA2FA3
:102E3000E114F10431F0D7011396FC93EE9312974D
:102E40003EC0F0938105E093800539C0681679068D
:102E500008F43C017D0112960D90BC91A02DB7CFD6
:102E600080917E0590917F0588169906E1F466169B
:102E70007706C8F48091140290911502009741F4EE
:102E80008DB79EB74091180250911902841B950B83
:102E9000E817F907B0F4F0937F05E0937E05F90198
:102EA000718360830CC0CB011CDE7C01009749F06C
:102EB000A801BE011BD0CE01ACDEC70104C0CE010B
:102EC00002C080E090E0DF91CF911F910F91FF90C1
:102ED000EF90DF90CF90BF90AF909F908F907F90BA
:102EE0006F90089581E090E0F89424C0FB01DC012C
:102EF00002C001900D9241505040D8F70895FC0156
:102F00008191861721F08823D9F799270895319761
:102F1000CF010895FB01DC018D9101908019011012
:102F2000D9F3990B0895FB01DC0101900D9200206B
:102F3000E1F7089511E0C7E2D1E000E005C0802F7D
:102F4000FE01C7DD2196011DC832D10780E00807C8
:062F5000B1F7F894FFCF79
:102F56008C0C8C0C8C0C8C0C8C0C8C0C8C0C8C0CAB
:102F66000100000000008205800000000000A508A6
:102F76006008C60B2C0DF70BD50BE90B7475726E3A
:102F860052696768742066696E6973680074757241
:102F96006E4C6566742066696E697368006F6E5F55
:102FA600666F72776172645F6C6566745F63726187
:102FB600736820006F6E5F666F72776172645F6C14
:102FC6006566745F63726173682066696E736869AB
:102FD600006F6E5F666F72776172645F6D696464BD
:102FE6006C655F6372617368006F6E5F666F7277A0
:102FF6006172645F72696768745F637261736800A7
:1030060063622D2D2D2D2D2D2D2D2D2D2D00666F31
:1030160072776172643A007475726E4C65667400FC
:1030260073666473667364007475726E526967685A
:1030360074000D0A006C6566743A0077656C636F00
:103046006D6520746F20636C65616E20726F626FB0
:10305600740073706565647570007370656564648B
:103066006F776E00736100746C00747200660062A4
:0430760000730000E3
:020000023000CC
:10E000000D9489F10D94B2F10D94B2F10D94B2F129
:10E010000D94B2F10D94B2F10D94B2F10D94B2F1F0
:10E020000D94B2F10D94B2F10D94B2F10D94B2F1E0
:10E030000D94B2F10D94B2F10D94B2F10D94B2F1D0
:10E040000D94B2F10D94B2F10D94B2F10D94B2F1C0
:10E050000D94B2F10D94B2F10D94B2F10D94B2F1B0
:10E060000D94B2F10D94B2F10D94B2F10D94B2F1A0
:10E070000D94B2F10D94B2F10D94B2F10D94B2F190
:10E080000D94B2F10D94B2F10D94B2F10D94B2F180
:10E090000D94B2F10D94B2F10D94B2F10D94B2F170
:10E0A0000D94B2F10D94B2F10D94B2F10D94B2F160
:10E0B0000D94B2F10D94B2F10D94B2F10D94B2F150
:10E0C0000D94B2F10D94B2F10D94B2F10D94B2F140
:10E0D0000D94B2F10D94B2F10D94B2F10D94B2F130
:10E0E0000D94B2F141546D656761323536300041AF
:10E0F000726475696E6F206578706C6F72657220DE
:10E1000073746B3530305632206279204D4C530099
:10E11000426F6F746C6F616465723E004875683F52
:10E1200000436F6D70696C6564206F6E203D200048
:10E130004350552054797065202020203D20005FF9
:10E140005F4156525F415243485F5F3D2000415658
:10E1500052204C696243205665723D20004743437C
:10E160002056657273696F6E203D20004350552024
:10E1700049442020202020203D20004C6F7720663D
:10E18000757365202020203D20004869676820665F
:10E190007573652020203D200045787420667573D6
:10E1A00065202020203D20004C6F636B2066757336
:10E1B000652020203D20004D617220203720323024
:10E1C000313300312E362E3800342E332E350056A2
:10E1D00023202020414444522020206F7020636F70
:10E1E00064652020202020696E73747275637469E1
:10E1F0006F6E2061646472202020496E74657272B3
:10E20000757074006E6F20766563746F7200726A49
:10E210006D702020006A6D70200057686174207056
:10E220006F72743A00506F7274206E6F7420737541
:10E2300070706F72746564004D7573742062652030
:10E2400061206C6574746572002000577269747483
:10E25000696E672045450052656164696E672045B7
:10E26000450045452065727220636E743D00504F35
:10E27000525400303D5A65726F2061646472003FF1
:10E280003D43505520737461747300403D454550C3
:10E29000524F4D207465737400423D426C696E6B41
:10E2A000204C454400453D44756D70204545505215
:10E2B0004F4D00463D44756D7020464C415348001B
:10E2C000483D48656C70004C3D4C69737420492F83
:10E2D0004F20506F72747300513D51756974005234
:10E2E0003D44756D702052414D00563D73686F7707
:10E2F00020696E7465727275707420566563746FF0
:10E30000727300593D506F727420626C696E6B00BD
:10E310002A0011241FBECFEFD1E2DEBFCDBF01E046
:10E320000CBF12E0A0E0B2E0EEE1FDEF03E00BBFB6
:10E3300002C007900D92A030B107D9F712E0A0E01B
:10E34000B2E001C01D92AE30B107E1F70F9460F367
:10E350000D948DFE01E20EBF0FEF0DBF11241FBE05
:10E360000D9460F30D9400F020E030E040ED57E0B4
:10E3700005C0FA013197F1F72F5F3F4F2817390792
:10E38000C0F308959C01260F311DC901A0E0B0E043
:10E390002F5F3F4FABBFFC018791882361F08093D3
:10E3A000C6008091C00086FFFCCF8091C0008064D1
:10E3B0008093C000EACF08958DE08093C6008091DD
:10E3C000C00086FFFCCF8091C00080648093C000B5
:10E3D0008AE08093C6008091C00086FFFCCF8091C8
:10E3E000C00080648093C00008950F94C2F10F9420
:10E3F000DCF10895FC019081992359F09093C600B7
:10E400008091C00086FFFCCF8091C0008064809323
:10E41000C0003196992379F70895282F982F929567
:10E420009F70892F805D8A3308F0895F8093C600D2
:10E430008091C00086FFFCCF8091C00080648093F3
:10E44000C000822F8F70982F905D9A3308F0995FEB
:10E450009093C6008091C00086FFFCCF8091C000E1
:10E4600080648093C00008959C01FB01853691056E
:10E470001CF46330710594F0C90164E670E00F94F8
:10E480002EFE605D7F4F6093C6008091C00086FFC6
:10E49000FCCF8091C00080648093C0002B30310598
:10E4A00014F43297B4F0C90164E670E00F942EFEC4
:10E4B0006AE070E00F942EFE605D7F4F6093C600AF
:10E4C0008091C00086FFFCCF8091C0008064809363
:10E4D000C000C9016AE070E00F942EFEC0968093E0
:10E4E000C6008091C00086FFFCCF8091C000806490
:10E4F0008093C00008951F93182F8EE692EE60E07F
:10E500000F94C2F11093C6008091C00086FFFCCF2B
:10E510008091C00080648093C0000F94DCF11F9153
:10E5200008952F923F924F925F926F927F928F92B7
:10E530009F92AF92BF92CF92DF92EF92FF920F9392
:10E540001F93DF93CF93CDB7DEB762970FB6F894E2
:10E55000DEBF0FBECDBF382E622ECA01DB015C01CB
:10E560006D01772420E2222E2E010894411C511CBB
:10E570008BC081E0A81680E0B80681E0C80680E084
:10E58000D80628F0C601AA27BB270F940DF2BB2797
:10E59000AD2D9C2D8B2D0F940DF28A2D0F940DF225
:10E5A0002092C6008091C00086FFFCCF8091C00001
:10E5B00080648093C0009DE29093C6008091C0006B
:10E5C00086FFFCCF8091C00080648093C0002092C1
:10E5D000C6008091C00086FFFCCF8091C00080649F
:10E5E0008093C00019828601750188249924A1E0D6
:10E5F0003A1651F03A1620F0B2E03B1661F409C029
:10E600000BBFF701779007C0C7010F9477FE782EF4
:10E6100002C0F7017080872D0F940DF22092C60082
:10E620008091C00086FFFCCF8091C0008064809301
:10E63000C000872D8052F401EF70F0708F3520F408
:10E64000E40DF51D708204C0E40DF51D8EE280839B
:10E650000894E11CF11C011D111D0894811C911CE2
:10E6600090E18916910409F0C2CF80E190E0A0E02A
:10E67000B0E0A80EB91ECA1EDB1E198AC2010F9493
:10E68000FAF10F94DCF16A94662009F072CF629679
:10E690000FB6F894DEBF0FBECDBFCF91DF911F91B3
:10E6A0000F91FF90EF90DF90CF90BF90AF909F9031
:10E6B0008F907F906F905F904F903F902F90089534
:10E6C0002F923F924F925F926F927F928F929F9282
:10E6D000AF92BF92CF92DF92EF92FF920F931F9370
:10E6E000DF93CF93CDB7DEB7CD53D1400FB6F894BB
:10E6F000DEBF0FBECDBF01E20EBF0FEF0DBF94B75F
:10E70000F894A89514BE80916000886180936000A1
:10E7100010926000789493FF05C0E0910002F091A0
:10E7200001021995279A2F9A8091C00082608093E8
:10E73000C00080E18093C40088E18093C1000000A4
:10E74000EE24FF24870144E0A42EB12CCC24DD2448
:10E7500024C0C5010197F1F70894E11CF11C011DCB
:10E76000111D21E2E2162EE4F20620E0020720E06D
:10E77000120718F031E0C32ED12CC801B70127ECE5
:10E780003BE140E050E00F9441FE611571058105C9
:10E79000910519F485B1805885B98091C00087FD35
:10E7A00003C0C114D104A9F2A6014F5F5F4FC25E3E
:10E7B000DE4F59834883CE51D140C25EDE4F8881FF
:10E7C0009981CE51D140019711F00D9410FEC05D9A
:10E7D000DE4F19821882C053D14060E0C15DDE4F28
:10E7E0001882CF52D14088249924C35DDE4F19820C
:10E7F0001882CD52D140C05EDE4F188219821A8233
:10E800001B82C052D140CE5CDE4F188219821A8220
:10E810001B82C253D140EE24FF2487010BBFF701B6
:10E8200007911691C45CDE4F19830883CC53D14005
:10E830000D940BFEC25EDE4F28813981CE51D1404E
:10E840002130310509F52091C600C25EDE4F1982E4
:10E850001882CE51D14022C02F5F3F4F4F4F5F4FA4
:10E86000213082E138078AE7480780E0580780F0C6
:10E87000C45CDE4FE881F981CC53D140EF5FFF4F9C
:10E8800019F0EE27FF27099420E030E040E050E047
:10E890008091C00087FFE0CF2091C600C35DDE4FAE
:10E8A00048815981CD52D1404F5F5F4FC35DDE4FEC
:10E8B00059834883CD52D140213209F063C64A3092
:10E8C000510508F05FC60894811C911C53E0851621
:10E8D000910409F059C600E010E018C081E280936D
:10E8E000C6008091C00086FFFCCF8091C00080648C
:10E8F0008093C0002F5F3F4F2931310579F70F9486
:10E90000DCF10F5F1F4F0530110519F020E030E0FA
:10E91000E5CF10920A0210920B0210920C02109294
:10E920000D02109206021092070210920802109235
:10E930000902109202021092030210920402109235
:10E9400005028FEE90EE60E00F94F5F180E191EE1C
:10E9500060E00F94C2F18091C00087FFFCCF9091DE
:10E96000C600903608F09F759032B8F09093C600BC
:10E970008091C00086FFFCCF8091C00080648093AE
:10E98000C000A0E2A093C6008091C00086FFFCCF2B
:10E990008091C00080648093C000983409F4D7C18E
:10E9A0009934B8F4923409F459C1933458F490333B
:10E9B00019F1903308F4E3C59F33A1F1903409F0C5
:10E9C000DEC5BDC0953409F470C1963409F0D7C5D1
:10E9D00098C1923509F42BC2933538F49C3409F46C
:10E9E000F5C1913509F0CBC518C2963509F445C279
:10E9F000993509F0C4C567C483E792EE62E00F94CD
:10EA0000F5F110920602109207021092080210927D
:10EA1000090210920A0210920B0210920C0210923C
:10EA20000D0213C18FE792EE62E00F94F5F18FEEC5
:10EA300090EE60E00F94F5F181E291EE60E00F94CA
:10EA4000C2F187EB91EE60E00F94F5F180E391EE77
:10EA500060E00F94C2F184EE90EE60E00F94F5F167
:10EA60008FE391EE60E00F94C2F186E090E061E008
:10EA700070E00F9434F20F94DCF18DE591EE60E0DC
:10EA80000F94C2F189EC91EE60E00F94F5F18EE401
:10EA900091EE60E00F94C2F183EC91EE60E00F9490
:10EAA000F5F18CE691EE60E00F94C2F18EE10F94E7
:10EAB0000DF288E90F940DF281E00F940DF20F949E
:10EAC000DCF18BE791EE60E00F94C2F119E0E0E039
:10EAD000F0E010935700E4918E2F0F940DF20F94F5
:10EAE000DCF18AE891EE60E00F94C2F1E3E0F0E03F
:10EAF00010935700E4918E2F0F940DF20F94DCF1D8
:10EB000089E991EE60E00F94C2F1E2E0F0E0109349
:10EB10005700E4918E2F0F940DF20F94DCF188EAE8
:10EB200091EE60E00F94C2F1E1E0F0E01093570045
:10EB30001491812F0F940DF20F94DCF107CF8BE825
:10EB400092EE62E00F94F5F18BE492EE60E00F94A8
:10EB5000F5F10F94DCF100E010E019C0C8016F2D51
:10EB60000F947FFEFF2031F489E492EE60E00F9471
:10EB7000C2F10BC0F092C6008091C00086FFFCCFAE
:10EB80008091C00080648093C0000F5F1F4FC80158
:10EB900081519F41A0E0B0E0ABBFFC01F790BAE229
:10EBA000FB1621F0E2E000301E07C1F60F94DCF105
:10EBB0000F94DCF187E592EE60E00F94F5F10F948D
:10EBC000DCF1CC24DD2400E010E01EC0C8010F946D
:10EBD00077FEF82E882331F489E492EE60E00F94FA
:10EBE000C2F10BC08093C6008091C00086FFFCCFAD
:10EBF0008091C00080648093C000FE1419F00894D6
:10EC0000C11CD11C0F5F1F4FC80181519F41A0E063
:10EC1000B0E0ABBFFC01E790FAE2EF1621F022E092
:10EC20000030120799F60F94DCF10F94DCF182E6C4
:10EC300092EE60E00F94C2F1C60161E070E00F94C3
:10EC400034F20F94DCF10F94DCF110920202109276
:10EC50000302109204021092050278CE89E992EE26
:10EC600062E00F94F5F1279A2F9A16C02F9880E052
:10EC700090E0E0EDF7E03197F1F7019684369105E9
:10EC8000C1F72F9A80E090E0E0EDF7E03197F1F7DF
:10EC9000019684369105C1F78091C00087FFE6CFC9
:10ECA0008091C00087FFFCCF64C485EA92EE62E0E9
:10ECB0000F94F5F140910202509103026091040219
:10ECC0007091050281E020E10F9491F2809102029F
:10ECD00090910302A0910402B091050280509F4FD1
:10ECE000AF4FBF4F8093020290930302A0930402A0
:10ECF000B093050280509041A040B04008F426CE69
:10ED0000A4CF83EB92EE62E00F94F5F140910602FE
:10ED100050910702609108027091090280E020E1A1
:10ED20000F9491F28091060290910702A09108023F
:10ED3000B091090280509F4FAF4FBF4F80930602A2
:10ED400090930702A0930802B0930902FFCD80ECD4
:10ED500092EE62E00F94F5F183E792EE60E00F949B
:10ED6000F5F18FE792EE60E00F94F5F18BE892EE0B
:10ED700060E00F94F5F189E992EE60E00F94F5F10F
:10ED800085EA92EE60E00F94F5F183EB92EE60E09D
:10ED90000F94F5F180EC92EE60E00F94F5F187ECC2
:10EDA00092EE60E00F94F5F188ED92EE60E00F9442
:10EDB000F5F18FED92EE60E00F94F5F18AEE92EEB0
:10EDC00060E00F94F5F183E093EEBDCD87EC92EE19
:10EDD00062E00F94F5F181E40F947BF282E40F94EA
:10EDE0007BF283E40F947BF284E40F947BF285E45E
:10EDF0000F947BF286E40F947BF287E40F947BF20E
:10EE000088E40F947BF28AE40F947BF28BE40F94F6
:10EE10007BF28CE40F947BF299CD88ED92EE62E068
:10EE20000F94F5F1772473948824992409C48FED05
:10EE300092EE62E00F94F5F140910A0250910B02BC
:10EE400060910C0270910D0282E020E10F9491F22A
:10EE500080910A0290910B02A0910C02B0910D02D8
:10EE600080509F4FAF4FBF4F80930A0290930B0289
:10EE7000A0930C02B0930D0269CD8AEE92EE62E08F
:10EE80000F94F5F184EE90EE60E00F94F5F18FECC5
:10EE900091EE60E00F94F5F1662477244301CC5D98
:10EEA000DE4F19821882C452D140D401C301B695F5
:10EEB000A79597958795CA5DDE4F88839983AA8326
:10EEC000BB83C652D140CC5DDE4FA881B981C4520C
:10EED000D1401196CC5DDE4FB983A883C452D14096
:10EEE000CD0162E070E00F9434F2B0E2B093C6005E
:10EEF0008091C00086FFFCCF8091C0008064809329
:10EF0000C000EDE2E093C6008091C00086FFFCCF18
:10EF10008091C00080648093C000F0E2F093C6004E
:10EF20008091C00086FFFCCF8091C00080648093F8
:10EF3000C000CA5DDE4FE880F9800A811B81C6529D
:10EF4000D140BB27A12F902F8F2D0F940DF2CA5DBA
:10EF5000DE4F8881C652D1400F940DF2B0E2FB2EF5
:10EF6000F092C6008091C00086FFFCCF8091C00067
:10EF700080648093C0000DE30093C6008091C000C0
:10EF800086FFFCCF8091C00080648093C00010E2B7
:10EF90001093C6008091C00086FFFCCF8091C00016
:10EFA00080648093C0008BBEF3012791C65DDE4F65
:10EFB0002883CA52D140A22EBB24CC24DD2408943D
:10EFC000611C711C811C911C8BBEF3018791282E42
:10EFD0003324442455240894611C711C811C911C09
:10EFE0008BBEF3013791C55DDE4F3883CB52D140E4
:10EFF0000894611C711C811C911C8BBEF30147910C
:10F00000C45DDE4F4883CC52D140ADEFEA2EAFEF66
:10F01000FA2EAFEF0A2FAFEF1A2F6E0C7F1C801E57
:10F02000911E142D032DF22CEE24EA0CFB1C0C1D5A
:10F030001D1D0F940DF220E22093C6008091C000A8
:10F0400086FFFCCF8091C00080648093C000C65DC5
:10F05000DE4F8881CA52D1400F940DF230E23093D6
:10F06000C6008091C00086FFFCCF8091C000806404
:10F070008093C000C45DDE4F8881CC52D1400F9494
:10F080000DF240E24093C6008091C00086FFFCCFA5
:10F090008091C00080648093C000C55DDE4F888190
:10F0A000CB52D1400F940DF250E25093C6008091A4
:10F0B000C00086FFFCCF8091C00080648093C000B8
:10F0C0008FEFE8168FEFF80680E0080780E018075A
:10F0D00031F484E092EE60E00F94C2F1DFC0D80119
:10F0E000C7018070907CA070B0708050904CA040A0
:10F0F000B040D1F52FEF3FE340E050E0E222F322B1
:10F1000004231523CA5DDE4FA880B980CA80DB8046
:10F11000C652D140AE0CBF1CC01ED11EAA0CBB1CD7
:10F12000CC1CDD1C8EE092EE60E00F94C2F1BB2798
:10F13000A12F902F8F2D0F940DF28E2D0F940DF285
:10F1400030E23093C6008091C00086FFFCCF8091F2
:10F15000C00080648093C0004EE34093C60080915D
:10F16000C00086FFFCCF87C08EE09EEFA0E0B0E03D
:10F17000E822F9220A231B239CE0E91694E9F90608
:10F1800090E0090790E0190709F088C0C45DDE4FE0
:10F19000A881CC52D140EA2EFF2400E010E0102FCD
:10F1A0000F2DFE2CEE24C55DDE4FB881CB52D14031
:10F1B000EB0EF11C011D111DD601C501817090706F
:10F1C000A070B070DC0199278827E80EF91E0A1F8D
:10F1D0001B1F20EF30E040E050E0A222B322C42207
:10F1E000D52241E1AA0CBB1CCC1CDD1C4A95D1F7F1
:10F1F000EA0CFB1C0C1D1D1D81E090E0A0E0B0E0BE
:10F20000282239224A225B2235E1220C331C441C7D
:10F21000551C3A95D1F7E20CF31C041D151D57013E
:10F220006801AA0CBB1CCC1CDD1C85E192EE60E0E1
:10F230000F94C2F1C801AA27BB270F940DF2BB2778
:10F24000A12F902F8F2D0F940DF28E2D0F940DF274
:10F2500090E29093C6008091C00086FFFCCF809121
:10F26000C00080648093C000AEE3A093C60080918C
:10F27000C00086FFFCCF8091C00080648093C000F6
:10F28000C601AA27BB270F940DF2BB27AD2D9C2DDD
:10F290008B2D0F940DF28A2D0F940DF20F94DCF14B
:10F2A000CC5DDE4FE881F981C452D140F99709F471
:10F2B0004DCBF4E0EF2EF12C012D112D6E0C7F1CA7
:10F2C000801E911EF2CD83E093EE62E00F94F5F183
:10F2D0008AE192EE60E00F94C2F18091C00087FF56
:10F2E000FCCF1091C6001F751093C6008091C0001E
:10F2F00086FFFCCF8091C00080648093C0000F9493
:10F30000DCF1812F81548A3108F036C1163409F4BA
:10F3100095C0173490F4133409F44EC0143430F40B
:10F320001134F1F0123409F01DC130C0143409F465
:10F3300059C0153409F016C16BC01A3409F4C4C0A1
:10F340001B3438F4173409F48FC0183409F00AC19B
:10F35000A1C01B3409F4D2C01C3409F003C1E8C0B9
:10F360008FEF81B90DC082B1809582B980E090E0C5
:10F37000E0EDF7E03197F1F70196883C9105C1F790
:10F380008091C00087FFEFCF12B8EFC08FEF84B934
:10F390000DC085B1809585B980E090E0E0EDF7E0A3
:10F3A0003197F1F70196883C9105C1F78091C00033
:10F3B00087FFEFCF15B8D9C08FEF87B90DC088B1DF
:10F3C000809588B980E090E0E0EDF7E03197F1F7C3
:10F3D0000196883C9105C1F78091C00087FFEFCF6F
:10F3E00018B8C3C08FEF8AB90DC08BB180958BB9A7
:10F3F00080E090E0E0EDF7E03197F1F70196883C8E
:10F400009105C1F78091C00087FFEFCF1BB8ADC059
:10F410008FEF8DB90DC08EB180958EB980E090E0F0
:10F42000E0EDF7E03197F1F70196883C9105C1F7DF
:10F430008091C00087FFEFCF1EB897C08FEF80BBD1
:10F440000DC081B3809581BB80E090E0E0EDF7E0F6
:10F450003197F1F70196883C9105C1F78091C00082
:10F4600087FFEFCF11BA81C08FEF83BB0DC084B38C
:10F47000809584BB80E090E0E0EDF7E03197F1F714
:10F480000196883C9105C1F78091C00087FFEFCFBE
:10F4900014BA6BC08FEF809301010FC080910201FD
:10F4A00080958093020180E090E0E0EDF7E03197F5
:10F4B000F1F70196883C9105C1F78091C00087FF64
:10F4C000EDCF1092020151C08FEF809304010FC065
:10F4D0008091050180958093050180E090E0E0ED4A
:10F4E000F7E03197F1F70196883C9105C1F78091DB
:10F4F000C00087FFEDCF1092050137C08FEF8093DA
:10F5000007010FC08091080180958093080180E079
:10F5100090E0E0EDF7E03197F1F70196883C910536
:10F52000C1F78091C00087FFEDCF109208011DC088
:10F530008FEF80930A010FC080910B01809580931B
:10F540000B0180E090E0E0EDF7E03197F1F70196F4
:10F55000883C9105C1F78091C00087FFEDCF1092E4
:10F560000B0103C085E292EEEEC98091C00087FFD7
:10F57000FCCF8091C600EAC988E392EEE4C98CE131
:10F5800091EEE1C988249924933011F1943028F444
:10F59000913089F09230B8F408C0953061F195301F
:10F5A000F0F0963009F048C043C02B3109F042C951
:10F5B00091E06BE13FC96227C15DDE4F2883CF52E6
:10F5C000D14092E037C9B22FA0E0622793E032C960
:10F5D000822F90E0A82BB92B622794E02BC92E3004
:10F5E00009F039C3622795E0C05DDE4F19821882A9
:10F5F000C053D1401FC9E1E0F0E0EC0FFD1FC05D3A
:10F60000DE4F08811981C053D140E00FF11F2083E4
:10F610000F5F1F4FC05DDE4F19830883C053D14079
:10F6200062270A171B0709F005C9D80196E002C92D
:10F63000261709F010C303C0973009F0FBC87724E0
:10F640009981933109F412C19431C8F4963009F4C8
:10F65000D8C0973050F4923009F406C1933009F4C1
:10F660006DC0913009F059C253C0913109F477C08F
:10F67000923108F0BBC0903109F04FC2F5C098310B
:10F6800009F487C0993150F4953109F4EFC09531F0
:10F6900008F4C6C1963109F040C2C2C19A3109F4DA
:10F6A0006CC09A3108F491C09B3109F45BC09D3164
:10F6B00009F033C29D81903359F48F81882311F46E
:10F6C0009EE11CC0813011F091E018C098E916C08D
:10F6D000892F807591F0903539F4E0E0F0E089E011
:10F6E0008093570094910AC0983539F4E3E0F0E034
:10F6F00089E080935700949101C090E01A821B82A8
:10F700008D818C831D829E831F8227E030E009C299
:10F710001A8288E08B8381E48C8386E58D8382E581
:10F720008E8389E48F8383E5888780E589878FE5E9
:10F730008A8782E38B872BE030E0F3C18A818139AD
:10F7400041F0823941F0803911F48FE005C080E04A
:10F7500003C082E001C08AE01A828B8344C0772410
:10F76000739482C08D81882311F48EE12CC0813086
:10F7700011F081E028C088E926C01A82E1E0F0E0BB
:10F7800089E08093570084918B831C8224E030E0D1
:10F79000C8C18B81803589F48C81883039F4E2E0EE
:10F7A000F0E089E08093570084910DC0E0E0F0E044
:10F7B00089E080935700849106C0E3E0F0E089E09F
:10F7C0008093570084911A82DFCF8D81836C99E0FA
:10F7D000E1E0F0E0082E90935700E89507B600FCB2
:10F7E000FDCF1A821B8223E030E09BC180EC8A832C
:10F7F000CE5CDE4F188219821A821B82C253D1401E
:10F800008EC18A8190E0A0E0B0E0582F44273327D2
:10F8100022278B8190E0A0E0B0E0DC0199278827C7
:10F82000282B392B4A2B5B2B8D8190E0A0E0B0E098
:10F83000282B392B4A2B5B2B8C8190E0A0E0B0E089
:10F84000BA2FA92F982F8827282B392B4A2B5B2BCF
:10F85000220F331F441F551FC05EDE4F288339839C
:10F860004A835B83C052D1401A8259C13A81C95C34
:10F87000DE4F3883C753D140CA5CDE4F1882C6536F
:10F88000D1408B81C82EDD24CA5CDE4F488159816E
:10F89000C653D140C42AD52A933109F082C0CE5C28
:10F8A000DE4F88819981AA81BB81C253D1408050AB
:10F8B000904CA340B04030F583E0CE5CDE4FE88052
:10F8C000F9800A811B81C253D140F70100935B008C
:10F8D00080935700E89507B600FCFDCFCE5CDE4F65
:10F8E000088119812A813B81C253D14000501F4FAA
:10F8F0002F4F3F4FCE5CDE4F088319832A833B8313
:10F90000C253D140C05EDE4F488159816A817B81FC
:10F91000C052D140DE011B9631E08C9111962C91A2
:10F9200011971296C75CDE4F2883C953D140C85C3B
:10F93000DE4F1882C853D14090E0C85CDE4FE881AA
:10F94000F981C853D1408E2B9F2B0C01FA01609393
:10F950005B0030935700E89511244E5F5F4F6F4F67
:10F960007F4F0EEFE02E0FEFF02ECE0CDF1CC114F8
:10F97000D10499F685E0C05EDE4F088119812A81A5
:10F980003B81C052D140F80120935B008093570027
:10F99000E89507B600FCFDCF81E180935700E8951C
:10F9A00035C0C05EDE4F88819981AA81BB81C0527B
:10F9B000D140B695A795979587957C018601ABE0D8
:10F9C000AA2EB12CAC0EBD1E0BC0D5016D915D01F0
:10F9D000C7010F947FFE0894E11CF11C01501040F8
:10F9E0000115110591F7A60160E070E0440F551F65
:10F9F000661F771FC05EDE4FE880F9800A811B8199
:10FA0000C052D1404E0D5F1D601F711F1A82C05E33
:10FA1000DE4F488359836A837B83C052D1407FC0C5
:10FA2000FA80C55CDE4FF882CB53D140C65CDE4F16
:10FA30001882CA53D1408B81C82EDD24C65CDE4FAC
:10FA400008811981CA53D140C02AD12A1A828981DA
:10FA5000BE016D5F7F4F843121F59601C05EDE4FA0
:10FA6000E880F9800A811B81C052D1400BBFF701A9
:10FA700087919691DB018C9311969C936E5F7F4FDB
:10FA8000D801C7010296A11DB11DC05EDE4F88835B
:10FA90009983AA83BB83C052D14022503040F1F6F3
:10FAA00036C0C05EDE4F288139814A815B81C052F9
:10FAB000D1400894C108D108760100E010E0089414
:10FAC000C11CD11C0894E11CF11C011D111DE20E8A
:10FAD000F31E041F151F21BDBB27A52F942F832FB5
:10FAE00082BD2F5F3F4F4F4F5F4FF89A80B5DB01CC
:10FAF0008D93BD012E153F054007510761F7C05E8C
:10FB0000DE4F288339834A835B83C052D1409601FC
:10FB10002D5F3F4FFB01108204C080EC8A8322E0FE
:10FB200030E08BE18093C6008091C00086FFFCCF5F
:10FB30008091C00080648093C000C15DDE4FF88179
:10FB4000CF52D140F093C6008091C00086FFFCCF19
:10FB50008091C00080648093C000432F3093C60022
:10FB60008091C00086FFFCCF8091C00080648093AC
:10FB7000C000922F2093C6008091C00086FFFCCF6A
:10FB80008091C00080648093C0008EE08093C600A6
:10FB90008091C00086FFFCCF8091C000806480937C
:10FBA000C00065E1C15DDE4FE880CF52D1406E25D7
:10FBB00069276427FE01319610C090819093C6009A
:10FBC0008091C00086FFFCCF31968091C000806498
:10FBD0008093C0006927215030402115310569F715
:10FBE0006093C6008091C00086FFFCCF8091C0006A
:10FBF00080648093C00085B1805885B9772081F4F6
:10FC0000C15DDE4F0881CF52D1400F5FC15DDE4F35
:10FC10000883CF52D14090E0A0E0B0E00D941AF4F8
:10FC200027982F9880E090E020ED37E0F901319798
:10FC3000F1F7019684369105C9F700008091C00064
:10FC40008D7F8093C00081E180935700E895EE2777
:10FC5000FF270994FFCF90E00D941AF497FB092E2B
:10FC600007260AD077FD04D02ED006D000201AF443
:10FC7000709561957F4F0895F6F7909581959F4F08
:10FC80000895A1E21A2EAA1BBB1BFD010DC0AA1FDD
:10FC9000BB1FEE1FFF1FA217B307E407F50720F0F5
:10FCA000A21BB30BE40BF50B661F771F881F991F70
:10FCB0001A9469F760957095809590959B01AC01B9
:10FCC000BD01CF010895AA1BBB1B51E107C0AA1FAC
:10FCD000BB1FA617B70710F0A61BB70B881F991FED
:10FCE0005A95A9F780959095BC01CD010895F99991
:10FCF000FECF92BD81BDF89A992780B50895262F31
:10FD0000F999FECF1FBA92BD81BD20BD0FB6F89400
:0EFD1000FA9AF99A0FBE01960895F894FFCF63
:040000033000E000E9
:00000001FF