:1000000027C1000017C60000EAC50000BDC50000FA
:1000100090C5000063C5000036C5000009C500009A
:10002000DCC4000046C1000044C1000042C1000021
:1000300040C100003EC100003CC100006DC6000090
:1000400038C1000036C1000034C1000032C10000D8
:1000500030C100002EC100002CC1000074C400009B
:1000600028C100000C948E0C0C94640C22C100007A
:1000700020C100001EC100001CC100001AC1000008
:1000800018C1000016C1000014C1000012C1000018
:1000900010C100000EC100000CC100000AC1000028
:1000A00008C1000006C1000004C1000002C1000038
:1000B00000C10000FEC00000FCC00000FAC000004B
:1000C000F8C00000F6C00000F4C00000F2C000005C
:1000D000F0C00000EEC00000ECC00000EAC000006C
:1000E000E8C00000EB01EE01DD01E101E7012502BE
:1000F000F201F601FC01000204020A020E021202E1
:10010000250218021C0220028C0391039603A0030F
:10011000AA032304B403BC03C403CE03D803E2033D
:10012000F103FB03230405040F041904000021005C
:10013000240027002A002D003000330001010000B8
:10014000040107010A0100002200250028002B00FD
:100150002E003100340002010000050108010B01EE
:10016000000020002300260029002C002F00320070
:100170000001000003010601090105050505070549
:1001800008080808020202020A0A08080404040413
:10019000010101010101010103030303030303033F
:1001A000040707070C0C0C0C0C0C0C0C02020202CE
:1001B00006060606060606060B0B0B0B0B0B0B0BB7
:1001C0000102102020080810204010204080020169
:1001D000020108040201010204081020408080404E
:1001E000201008040201800402018040201008044D
:1001F00002010804020101020408102040800102EB
:1002000004081020408000000A0B02090C0D0E08A3
:1002100007030401000000000000000000000000CF
:1002200000000000000000000000000000000000CE
:10023000000012111000000000000000000000008B
:100240000000000000000000000000007F0EE80C2D
:1002500011241FBECFEFD1E2DEBFCDBF00E00CBF47
:1002600013E0A0E0B2E0E2E8F7E200E00BBF02C07A
:1002700007900D92A83CB107D9F725E0A8ECB3E0B0
:1002800001C01D92A436B207E1F711E0C7E2D1E048
:1002900000E006C021970109802FFE010E947F1116
:1002A000C632D10780E00807A9F70E94060D0C941A
:1002B000B013A6CEFC01538D448D252F30E0842F42
:1002C00090E0821B930B541710F0CF96089501977E
:1002D0000895FC01918D828D981761F0828DDF0168
:1002E000A80FB11D5D968C91928D9F5F9F73928F29
:1002F00090E008958FEF9FEF0895FC01918D828D1E
:10030000981731F0828DE80FF11D858D90E00895EA
:100310008FEF9FEF0895FC01918D228D892F90E042
:10032000805C9F4F821B91098F739927089580E00D
:1003300090E0892B21F00E94400A811125C080E0C5
:1003400090E0892B41F080E090E0892B21F00E9421
:10035000000081111CC080E090E0892B41F080E01A
:1003600090E0892B21F00E940000811113C080E0F1
:1003700090E0892BA1F080E090E0892B81F00E9431
:10038000000081110AC008950E940000D8CF0E9489
:100390000000E1CF0E940000EACF0C940000089515
:1003A00090E0FC013197E231F10508F04EC088275A
:1003B000EE58FF4F8F4F0C947F11809180008F7704
:1003C00003C0809180008F7D80938000089580918C
:1003D0008000877FF9CF84B58F7702C084B58F7D89
:1003E00084BD08958091B0008F7703C08091B000E4
:1003F0008F7D8093B0000895809190008F7707C023
:10040000809190008F7D03C080919000877F8093C2
:10041000900008958091A0008F7707C08091A00080
:100420008F7D03C08091A000877F8093A0000895F6
:10043000809120018F7707C0809120018F7D03C0BC
:1004400080912001877F809320010895CF93DF93CF
:10045000282F30E0F901EA5FFD4F8491F901E05463
:10046000FE4FD491F901E658FE4FC491CC2389F098
:10047000811196DFEC2FF0E0EE0FFF1FE05AFE4FE8
:10048000A591B491EC91ED2381E090E021F480E01E
:1004900002C080E090E0DF91CF9108950895089523
:1004A0002091CC033091CD038091FD049091FE0406
:1004B000223031051CF062E370E002C06AE070E0B7
:1004C0000C94E90BEDCFECCF6CE370E08091FD0470
:1004D0009091FE040C94E90BFC01848DDF01A80FC0
:1004E000B11DA35ABF4F2C91848D90E001968F735C
:1004F0009927848FA689B7892C93A089B1898C917B
:10050000837080648C93938D848D981306C00288C9
:10051000F389E02D80818F7D80830895EF92FF9293
:100520000F931F93CF93DF93EC0181E0888F9B8D16
:100530008C8D981305C0E889F989808185FD25C0D7
:10054000F62E0B8D10E00F5F1F4F0F731127E02E5B
:100550008C8DE8120BC00FB607FCFACFE889F98939
:10056000808185FFF5CFCE01B7DFF2CF8B8DFE0105
:10057000E80FF11DE35AFF4FF0829FB7F8940B8FFD
:10058000EA89FB89808180620AC09FB7F894EE896E
:10059000FF896083E889F989808183708064808322
:1005A0009FBF81E090E0DF91CF911F910F91FF906D
:1005B000EF900895CF93DF93EC01888D8823C1F0ED
:1005C000EA89FB89808185FD05C0A889B9898C915C
:1005D00086FD0EC00FB607FCF5CF808185FFF2CFF8
:1005E000A889B9898C9185FFEDCFCE0175DFE8CF61
:1005F000DF91CF9108951F93CF93DF93282F30E0A1
:10060000F901EA5FFD4F8491F901E054FE4FD49166
:10061000F901E658FE4FC491CC23B9F0162F811191
:10062000BFDEEC2FF0E0EE0FFF1FEA5BFE4FA5915F
:10063000B4919FB7F894111104C08C91D095D82330
:1006400002C0EC91DE2BDC939FBFDF91CF911F9115
:100650000895CF93DF9390E0FC01E054FE4F249186
:10066000FC01E658FE4F8491882361F190E0880FE9
:10067000991FFC01E45DFE4FC591D491FC01EA5B3A
:10068000FE4FA591B491611109C09FB7F89488817C
:10069000209582238883EC912E230BC0623061F475
:1006A0009FB7F8948881322F309583238883EC910B
:1006B0002E2B2C939FBF06C08FB7F894E8812E2B6A
:1006C00028838FBFDF91CF9108951F93CF93DF933E
:1006D000182FEB0161E0BDDF209711F460E004C04A
:1006E000CF3FD10531F461E0812FDF91CF911F9190
:1006F00082CFE12FF0E0EA5FFD4FE4918E2F90E092
:10070000FC013197E231F10508F09DC08827EC57D4
:10071000FF4F8F4F0C947F1184B5806884BDC7BD97
:1007200097C084B5806284BDC8BD92C080918000AE
:10073000806880938000D0938900C093880088C02F
:1007400080918000806280938000D0938B00C09362
:100750008A007EC080918000886080938000D09362
:100760008D00C0938C0074C08091B000806880932D
:10077000B000C093B3006CC08091B00080628093E1
:10078000B000C093B40064C08091900080688093F2
:100790009000D0939900C09398005AC08091900027
:1007A000806280939000D0939B00C0939A0050C0C9
:1007B00080919000886080939000D0939D00C093BA
:1007C0009C0046C08091A00080688093A00080912A
:1007D000A0008F7B8093A000D093A900C093A800B5
:1007E00037C08091A00080628093A000D093AB00BE
:1007F000C093AA002DC08091A00088608093A000C3
:10080000D093AD00C093AC0023C0809120018068DC
:1008100080932001D0932901C093280119C08091B1
:100820002001806280932001D0932B01C0932A0184
:100830000FC080912001886080932001D0932D010A
:10084000C0932C0105C0C038D1050CF04CCF46CF69
:10085000DF91CF911F910895FC0177FF02C060E006
:1008600070E06F3F710519F014F06FEF70E075875D
:10087000648773876287868128CF3FB7F894809119
:10088000DA039091DB03A091DC03B091DD0326B580
:10089000A89B05C02F3F19F00196A11DB11D3FBFB8
:1008A000BA2FA92F982F8827820F911DA11DB11D46
:1008B000BC01CD0142E0660F771F881F991F4A9542
:1008C000D1F708952FB7F8946091D6037091D703AC
:1008D0008091D8039091D9032FBF0895E091FD0432
:1008E000F091FE0481E083838283ECDF2091C803D2
:1008F0003091C903AB01421B530B9A01293E33408F
:1009000058F42091CC033091CD032F5F3F4F3093AB
:10091000CD032093CC0304C01092CD031092CC03DE
:10092000DC01CB01AA27BB278093C8039093C9039E
:10093000A093CA03B093CB0363E672E08091FD04F9
:100940009091FE0480C61F920F920FB60F92112451
:100950002F933F938F939F93AF93BF938091D60331
:100960009091D703A091D803B091D9033091D503CA
:1009700023E0230F2D3720F40196A11DB11D05C0E2
:1009800026E8230F0296A11DB11D2093D503809365
:10099000D6039093D703A093D803B093D903809143
:1009A000DA039091DB03A091DC03B091DD030196A3
:1009B000A11DB11D8093DA039093DB03A093DC03A8
:1009C000B093DD03BF91AF919F918F913F912F9194
:1009D0000F900FBE0F901F9018951F920F920FB699
:1009E0000F9211240BB60F922F933F934F935F9367
:1009F0006F937F938F939F93AF93BF93EF93FF93E7
:100A0000E0910E02F0910F021995FF91EF91BF91C5
:100A1000AF919F918F917F916F915F914F913F9196
:100A20002F910F900BBE0F900FBE0F901F90189537
:100A30001F920F920FB60F9211240BB60F922F93A5
:100A40003F934F935F936F937F938F939F93AF9356
:100A5000BF93EF93FF93E0910C02F0910D02199573
:100A6000FF91EF91BF91AF919F918F917F916F9186
:100A70005F914F913F912F910F900BBE0F900FBE42
:100A80000F901F9018951F920F920FB60F9211247E
:100A90000BB60F922F933F934F935F936F937F9378
:100AA0008F939F93AF93BF93EF93FF93E0910202D5
:100AB000F09103021995FF91EF91BF91AF919F9132
:100AC0008F917F916F915F914F913F912F910F90F7
:100AD0000BBE0F900FBE0F901F9018951F920F9294
:100AE0000FB60F9211240BB60F922F933F934F9393
:100AF0005F936F937F938F939F93AF93BF93EF9386
:100B0000FF93E0910002F09101021995FF91EF919E
:100B1000BF91AF919F918F917F916F915F914F9115
:100B20003F912F910F900BBE0F900FBE0F901F9013
:100B300018951F920F920FB60F9211240BB60F92B9
:100B40002F933F934F935F936F937F938F939F93D5
:100B5000AF93BF93EF93FF93E0910A02F0910B02E2
:100B60001995FF91EF91BF91AF919F918F917F91D7
:100B70006F915F914F913F912F910F900BBE0F900E
:100B80000FBE0F901F9018951F920F920FB60F92E5
:100B900011240BB60F922F933F934F935F936F9354
:100BA0007F938F939F93AF93BF93EF93FF93E091C6
:100BB0000802F09109021995FF91EF91BF91AF9151
:100BC0009F918F917F916F915F914F913F912F9165
:100BD0000F900BBE0F900FBE0F901F9018951F9295
:100BE0000F920FB60F9211240BB60F922F933F93D3
:100BF0004F935F936F937F938F939F93AF93BF9325
:100C0000EF93FF93E0910602F09107021995FF918F
:100C1000EF91BF91AF919F918F917F916F915F9174
:100C20004F913F912F910F900BBE0F900FBE0F90E1
:100C30001F9018951F920F920FB60F9211240BB6AA
:100C40000F922F933F934F935F936F937F938F9365
:100C50009F93AF93BF93EF93FF93E0910402F091C2
:100C600005021995FF91EF91BF91AF919F918F91DF
:100C70007F916F915F914F913F912F910F900BBE9C
:100C80000F900FBE0F901F901895CF93DF93EC013C
:100C900061E08A81B0DC60E08C81ADDC82E090E0D4
:100CA00099878887DF91CF910895CF93DF93EC01E7
:100CB00060E08A81A0DC61E08C819DDC81E090E0D5
:100CC00099878887DF91CF9108950F931F93CF93D2
:100CD000DF93EC018B017B876A8788819981BCDD7A
:100CE000B8018A819B81B8DDFE01E05CFF4F808105
:100CF0009181019761F4B8018C819D81ADDDB801CE
:100D00008E819F81DF91CF911F910F91A5CDDF91B2
:100D1000CF911F910F9108951F920F920FB60F92CE
:100D200011240BB60F922F933F934F935F936F93C2
:100D30007F938F939F93AF93BF93EF93FF93809194
:100D4000D3039091D4038093B2008091CF0390910C
:100D5000D003A091D103B091D2030196A11DB11D82
:100D60008093CF039093D003A093D103B093D20389
:100D70008091CF039091D003A091D103B091D20381
:100D80008091CE03811118C081E08093CE038091C1
:100D9000CF039091D003A091D103B091D20380935F
:100DA000CF039093D003A093D103B093D203E0E09C
:100DB000F0E019951092CE03FF91EF91BF91AF91A2
:100DC0009F918F917F916F915F914F913F912F9163
:100DD0000F900BBE0F900FBE0F901F9018950F93A2
:100DE0001F93CF93DF9300D000D0CDB7DEB78C0137
:100DF000FC01138E128E158E148E168E118E108E8F
:100E00006CE272E0CE0101960AD4CE01019642D383
:100E1000CE01019600D4F80112A211A214A213A2CD
:100E200015A210A2178E60E472E0CE010196F7D3EE
:100E3000CE0101962FD3CE010196EDD326960FB6A3
:100E4000F894DEBF0FBECDBFDF91CF911F910F9100
:100E50000895CF93DF9300D000D0CDB7DEB7FC016B
:100E600072A361A354A343A381E085A365E572E067
:100E7000CE010196D4D3CE0101960CD3CE010196BA
:100E8000CAD326960FB6F894DEBF0FBECDBFDF9152
:100E9000CF9108950F931F93CF93DF9300D000D08D
:100EA000CDB7DEB70091FF0410910005D8019596EB
:100EB0008C919597882309F444C05F968D919C91FD
:100EC0009097019690969C938E935F9762E370E063
:100ED0000E946C11892B91F467E672E0CE010196B5
:100EE0009ED3CE010196D6D2CE01019694D3F801BD
:100EF000878D90A1DDD28EED93E05CDBD8015F960B
:100F00002D913C91909791968D919C919297281755
:100F10003907B9F49396ED91FC91949780E090E0B5
:100F20001995F801878D90A1C3D2D80194961C928F
:100F30001E92939795961C92959790961C921E924E
:100F40005F97F8018281938101969383828382A9BE
:100F500093A9019693AB82AB26960FB6F894DEBFA9
:100F60000FBECDBFDF91CF911F910F9108950F93C9
:100F70001F93CF93DF9300D000D0CDB7DEB70091A1
:100F8000FF0410910005D8015E968C915E9788232E
:100F900009F44CC058968D919C9159970196599699
:100FA0009C938E93589762E370E00E946C11892B9A
:100FB00091F46EE772E0CE01019631D3CE01019635
:100FC00069D2CE01019627D3F801808D918D70D220
:100FD0008EED93E0EFDAD80158962D913C91599718
:100FE0005A968D919C915B9728173907F9F45C9676
:100FF0008D919C915D97892BC9F064E972E0CE01D7
:1010000001960DD3CE01019645D2CE01019603D3B0
:10101000D8015C96ED91FC915D9780E090E0199588
:10102000F801158E148E168E118E108ED8018D91AA
:101030009C911197019611969C938E93D0968D91C9
:101040009C91D1970196D1969C938E93D09726969A
:101050000FB6F894DEBF0FBECDBFDF91CF911F91C9
:101060000F910895CF93DF9300D000D0CDB7DEB7B6
:101070006FEA72E0CE010196D2D2CE0101960AD279
:10108000CE010196C8D2E091FD04F091FE0481E00A
:101090008383828317DC2091C8033091C903AB019D
:1010A000421B530B9A01293E334058F42091CC0344
:1010B0003091CD032F5F3F4F3093CD032093CC036E
:1010C00004C01092CD031092CC03DC01CB01AA27FF
:1010D000BB278093C8039093C903A093CA03B0931E
:1010E000CB0362E672E08091FD049091FE04ABD2E6
:1010F00026960FB6F894DEBF0FBECDBFDF91CF911D
:101100000895CF93DF9300D000D0CDB7DEB763EC66
:1011100072E0CE01019683D2CE010196BBD1CE0101
:10112000019679D2E091FD04F091FE0481E0838381
:10113000828367EA78E080819181FBD226960FB6A0
:10114000F894DEBF0FBECDBFDF91CF910895CF924F
:10115000DF92EF92FF920F931F93CF93DF93CDB760
:10116000DEB72C970FB6F894DEBF0FBECDBF6AED89
:1011700072E0CE01019653D2CE0101968BD1CE0101
:10118000019649D2C090FD04D090FE04F601008182
:101190001181F801808591858530910509F461C040
:1011A000079709F442C07801FCE0EF0EF11CC7017B
:1011B00016DE87E090E0F8019187808746E759E0E6
:1011C0006CE370E0C70145DEF801808191815DDD4F
:1011D000F8018281938169DDF801E05CFF4F808135
:1011E0009181019791F4F801848195815EDDF80188
:1011F000E680F78060E0F7018281FDD960E0F701C9
:101200008481F9D9F70111861086F801628573850A
:10121000C8015BDD67EF72E0CE01019600D2CE011E
:10122000019638D1CE010196F6D16DE373E0CE017F
:101230000796F5D11A8219821C821B821E821D829A
:10124000BE01695F7F4FCE010196A8D1BE016F5FDD
:101250007F4FC601C2D1CE010196DDD1CE010796E6
:10126000DAD12C960FB6F894DEBF0FBECDBFDF915A
:10127000CF911F910F91FF90EF90DF90CF90089545
:10128000CF93DF9300D000D0CDB7DEB768E073E036
:10129000CE010196C4D1CE010196FCD0CE010196BB
:1012A000BAD1E091FD04F091FE0481E08383828352
:1012B00084E3CCD884E3CAD880E3C8D88EE2C6D809
:1012C00084E3C4D882E3C2D8E091FD04F091FE0427
:1012D00064E672E0808191812CD226960FB6F89454
:1012E000DEBF0FBECDBFDF91CF910895CF93DF93C7
:1012F00000D000D0CDB7DEB76FE173E0CE0101962C
:101300008ED1CE010196C6D0CE01019684D1E09156
:10131000FD04F091FE04128281E0838326960FB6CD
:10132000F894DEBF0FBECDBFDF91CF910895EEEDF3
:10133000F3E0A089B18982E08C93A485B5851C92E5
:10134000A685B78580E18C93108EA489B58986E047
:101350008C93A289B3898C9180618C93A289B38983
:101360008C9188608C93A289B3898C9180688C93CE
:101370000288F389E02D80818F7D80830895CF924C
:10138000DF92EF92FF920F931F93CF93DF936C0145
:101390007A018B01C0E0D0E0CE15DF0581F0D801E5
:1013A0006D918D01D601ED91FC910190F081E02DC0
:1013B000C6011995892B11F02196EECF7E01C70148
:1013C000DF91CF911F910F91FF90EF90DF90CF9021
:1013D0000895089580E090E00895009761F0FC0181
:1013E00001900020E9F73197AF01481B590BBC0170
:1013F0008EED93E0C4CF80E090E008950E949C13AE
:10140000EF92FF920F931F93CF93DF93EC017B0139
:101410008A0188819981009729F02A813B812417CC
:101420003507F8F4B8016F5F7F4F0E94BC12009738
:1014300059F0998388831B830A832C813D81232B58
:1014400081F4FC0110820DC088819981009711F010
:101450000E943312198218821D821C821B821A82FA
:1014600007C01D830C83B701888199810E94A9134D
:10147000CE01DF91CF911F910F91FF90EF900895D2
:101480008EED93E00E948B0121E0892B09F420E08E
:10149000822F0895FC0144815581608171818EED18
:1014A00093E06DDF8DE293E098DF8EED93E082C8EC
:1014B0008F929F92AF92BF92CF92DF92EF92FF9264
:1014C0000F931F93CF93DF93CDB7DEB7A1970FB6DE
:1014D000F894DEBF0FBECDBF6C01990FEE08FF0878
:1014E000F7FE28C06DE28EED93E018D88C0122271C
:1014F0003327A9012C193D094E095F0919A2CE0114
:1015000081967C019AE0892E912CA12CB12CCA01E4
:10151000B901A501940183D6605DF70162937F0153
:10152000211531054105510591F7CF0156DF080F0F
:10153000191F1CC0A701960119A28E010F5D1F4F34
:101540008AE0C82ED12CE12CF12CCA01B901A701E7
:10155000960165D6605DF80162938F012115310512
:101560004105510591F7CF0138DF8C018DE293E001
:1015700034DF800F911FA1960FB6F894DEBF0FBE27
:10158000CDBFDF91CF911F910F91FF90EF90DF9032
:10159000CF90BF90AF909F908F900895CF93DF939F
:1015A000EC01FB0186179707A1F06081718161153D
:1015B000710521F04481558123DF0BC08881998119
:1015C000009709F050D7198218821D821C821B8255
:1015D0001A82CE01DF91CF910895FC01E45AFD4FAC
:1015E000208131812336310521F42FEF3FEF318304
:1015F0002083208131812F5F3F4F31832083E6E0BC
:10160000E29FA001E39F500D11249A012C5F3F4FF0
:10161000820F931FC3CFFC018081918124C7FC01FD
:101620001182108213821282158214826115710553
:1016300049F0FB0101900020E9F73197AF01461B0B
:10164000570BDECE0895AF92BF92CF92DF92EF920A
:10165000FF920F931F93CF93DF93CDB7DEB72C97F5
:101660000FB6F894DEBF0FBECDBFFC010081118123
:10167000F801208531852130310509F449C07B010D
:101680005C016801FCE0CF0ED11CC601A8DBA701FC
:1016900068EC70E0C601DDDB81E090E0F801918745
:1016A00080878081918101DBF80182819381FDDA5D
:1016B000F801E05CFF4F80819181019741F4F801CE
:1016C00084819581F2DAF80186819781EEDAF8015A
:1016D00062857385C801F9DA68EF73E0CE01079679
:1016E0009EDF1A8219821C821B821E821D82BE010D
:1016F000695F7F4FCE01019651DFBE016F5F7F4F63
:10170000C5016BDFCE01019686DFCE01079683DF30
:101710002C960FB6F894DEBF0FBECDBFDF91CF91F0
:101720001F910F91FF90EF90DF90CF90BF90AF90FF
:101730000895EF92FF920F931F93CF93DF9300D002
:1017400000D0CDB7DEB7FC012085318522303105D0
:1017500099F17B018C010C9642DB8EE591E0F8015A
:1017600097A386A3F1A6E0A681E082A769E373E0D0
:10177000CE01019654DFCE0101968CDECE0101969A
:101780004ADF82E090E0F801918780878081918133
:101790007CDAF8018281938178DAF801E05CFF4F0E
:1017A00080819181019741F4F801848195816DDAFE
:1017B000F8018681978169DA26960FB6F894DEBF24
:1017C0000FBECDBFDF91CF911F910F91FF90EF9092
:1017D0000895AF92BF92CF92DF92EF92FF920F9354
:1017E0001F93CF93DF93CDB7DEB72C970FB6F89446
:1017F000DEBF0FBECDBFFC0100811181F801208545
:1018000031852430310509F44EC07B016C0128304C
:10181000310561F15801FCE0AF0EB11CC501DFDA02
:1018200088E090E0F8019187808746E759E0B701AA
:10183000C5010FDBF8018081918137DAF8018281DF
:10184000938123DAF801E05CFF4F80819181019759
:1018500041F4F8018481958128DAF8018681978125
:1018600014DAF80162857385C8012FDAB701665B67
:101870007C4FCE010796D3DE1A8219821C821B820E
:101880001E821D82BE01695F7F4FCE01019686DEFA
:10189000BE016F5F7F4FC601A0DECE010196BBDEA9
:1018A000CE010796B8DE2C960FB6F894DEBF0FBEB9
:1018B000CDBFDF91CF911F910F91FF90EF90DF90FF
:1018C000CF90BF90AF9008951F920F920FB60F92D6
:1018D00011240BB60F922F933F934F935F936F9307
:1018E0007F938F939F93AF93BF93EF93FF938EED6F
:1018F00093E00E946C02FF91EF91BF91AF919F9195
:101900008F917F916F915F914F913F912F910F90A8
:101910000BBE0F900FBE0F901F9018951F920F9245
:101920000FB60F9211240BB60F922F938F939F93A4
:10193000EF93FF93E091EE03F091EF038081E0914C
:10194000F403F091F50382FD12C090818091F703BA
:101950008F5F8F732091F803821751F0E091F703A6
:10196000F0E0E252FC4F958F8093F70301C0808135
:10197000FF91EF919F918F912F910F900BBE0F9040
:101980000FBE0F901F9018951F93CF93DF93FC010C
:10199000D62FC42F122F62837383448355832683EB
:1019A000378361E08D2F0E94290361E08C2F0E9414
:1019B000290361E0812F0E94290360E08D2F0E949E
:1019C000FB0260E08C2FDF91CF911F910C94FB0202
:1019D00081EC94E020DE87EC94E01DDE8DEC94E059
:1019E0001ADE83ED94E017DE89ED94E014DE8FEDCE
:1019F00094E011DE85EE94E00EDE8BEE94E00BDEDB
:101A000081EF94E008DE87EF94E005CECF93DF937B
:101A100000D000D0CDB7DEB7789484B5826084BDA5
:101A200084B5816084BD85B5826085BD85B58160E2
:101A300085BD80916E00816080936E001092810060
:101A4000809181008260809381008091810081601B
:101A500080938100809180008160809380008091DC
:101A6000B10084608093B1008091B0008160809368
:101A7000B0008091910082608093910080919100EC
:101A800081608093910080919000816080939000AC
:101A90008091A10082608093A1008091A10081606B
:101AA0008093A1008091A00081608093A00080912C
:101AB00021018260809321018091210181608093C6
:101AC00021018091200181608093200180917A0022
:101AD000846080937A0080917A00826080937A009B
:101AE00080917A00816080937A0080917A0080688A
:101AF00080937A001092C1001092BD041092BE042F
:101B00001092BF041092C00410927D0410927E04C3
:101B100010927F04109280040E9462046B017C0189
:101B20004B015C0128EB820E2BE0921EA11CB11C24
:101B30000E9462046C157D058E059F0528F08616AF
:101B40009706A806B906A0F70E943D044B015C0168
:101B500088EEC82E83E0D82EE12CF12C0E943D04A3
:101B6000DC01CB0188199909AA09BB09883E934079
:101B7000A105B10598F381E0C81AD108E108F10880
:101B800028EE820E23E0921EA11CB11CC114D104C8
:101B9000E104F10419F7CBDB0E94620460937D0439
:101BA00070937E0480937F049093800480E593E09B
:101BB00014DC0E9462046B017C014B015C018AE031
:101BC000880E911CA11CB11C0E9462046C157D053D
:101BD0008E059F0528F086169706A806B906A0F779
:101BE00081E0809391040E94620460937D0470936D
:101BF0007E0480937F049093800481E693E0EDDB84
:101C000096DB8091A100887F85608093A10068E6C3
:101C100073E0CE01019603DDCE0101963BDCCE01DF
:101C20000196F9DC62E370E081E095E04ED88091A6
:101C30007B00877F80937B0080E480937C00809191
:101C40007A00806480937A0080917A0086FDFCCFD0
:101C5000609178008091790070E0782B072E000C5D
:101C6000880B990B611571058105910509F0CED29C
:101C70008091090590910A05019761F18DE095E049
:101C8000AED880910105909102050FD8809103058F
:101C9000909104050AD880914105909142050197E1
:101CA00061F480910505909106050E94550680918A
:101CB0000705909108050E94550660910B057091EB
:101CC0000C0581E095E001D881E090E090930A0551
:101CD0008093090560E08EE10E94FB0261E080E2F2
:101CE0000E94FB0262E370E086E00E94650362E30B
:101CF00070E087E00E9465030E949701FDCFEF929C
:101D0000FF920F931F93CF93DF931092E1031092F2
:101D1000E00388EE93E0A0E0B0E08093E2039093CC
:101D2000E303A093E403B093E5038EE192E0909384
:101D3000DF038093DE0385EC90E09093EB038093C8
:101D4000EA0384EC90E09093ED038093EC0380EC45
:101D500090E09093EF038093EE0381EC90E09093FA
:101D6000F1038093F00382EC90E09093F30380936F
:101D7000F20386EC90E09093F5038093F4031092C5
:101D8000F7031092F8031092F9031092FA031092DD
:101D900081041092820410928304109284041092A1
:101DA0008504109286041092870410928804109281
:101DB000890410928A0410928B0410928C04109261
:101DC0008D0410928E0410928F04109290046FE78D
:101DD00073E087EF94E023DC67E873E081EF94E041
:101DE0001EDC61E973E08BEE94E019DC69E973E0D5
:101DF00085EE94E014DC6EE973E08FED94E00FDC87
:101E000069EA73E089ED94E00ADC6FEA73E083ED40
:101E100094E005DC6BEB73E08DEC94E000DC6AEAA7
:101E200072E087EC94E0FBDB63EC73E081EC94E020
:101E3000F6DB02E515E01092530510925205109260
:101E40005B0510925A0510925D0510925C05109288
:101E50005F0510925E0526E030E040E250E06EE162
:101E600070E0C80191DDC4E4D5E010924505109200
:101E7000440510924D0510924C0510924F0510929A
:101E80004E05109251051092500527E030E04AE1CE
:101E900050E06CE170E0CE0177DD10920A051092FF
:101EA000090510920C0510920B0510920E05109268
:101EB0000D051092100510920F0510921105109249
:101EC0001205109213051092140510921505109228
:101ED0001605109217051092180510921905109208
:101EE0001A0510921B0510921C0510921D051092E8
:101EF0001E0510921F0510922005109221051092C8
:101F000022051092230510922405109226051092A6
:101F1000250510923A051092390510923C05109251
:101F20003B0510923E0510923D051092400510921F
:101F30003F0510924305D0930205C093010510930D
:101F400004050093030582E090E09093420580939E
:101F500041058DE095E0909300058093FF04109378
:101F6000380500933705D0933605C093350587EBC8
:101F700097E0909301028093000280916A008C7F29
:101F8000826080936A00EC9A8AE497E0909303025F
:101F90008093020280916A00837F886080936A0048
:101FA000ED9A8FE492E0909334058093330580E6B8
:101FB00092E0C1D1EC011A821B828C010C5F1F4F91
:101FC0007C0184EAE81A8DEFF80A6FE273E0C80139
:101FD00026DB0A5F1F4F0E151F05B9F78FEF9FEF26
:101FE000F80191838083FE01E25AFD4F1182108235
:101FF00081E095E099838883D093FE04C093FD042B
:1020000060E082E20E94290360E084E20E942903EA
:1020100060E086E20E94290360E088E20E942903D2
:1020200060E08AE20E94290360E08CE20E942903BA
:1020300060E08EE20E94290360E080E30E942903B1
:1020400060E082E30E94290360E084E30E942903A8
:1020500062E085E10E94290362E084E10E94290395
:1020600062E082E10E94290362E083E10E94290389
:102070008EE694E0909305028093040280916900BB
:102080008C7F826080936900E89A82E398E0909365
:1020900007028093060280916900837F88608093A5
:1020A0006900E99A81E898E090930B0280930A0214
:1020B000809169008F73806880936900EB9A80E457
:1020C00099E09093090280930802809169008F7CC7
:1020D000806280936900EA9ADF91CF911F910F91FE
:1020E000FF90EF9008958F929F92AF92BF92CF9200
:1020F000DF92EF92FF92CF93DF93EC0168817981B9
:102100008A819B81611571058105910521F464E245
:1021100079ED8BE597E02DE133EF41E050E0A1D080
:1021200049015A019B01AC01A7EAB1E4B6D06B01A9
:102130007C01ACEEB4EFA5019401BBD0DC01CB0176
:102140008C0D9D1DAE1DBF1DB7FF03C00197A109DA
:10215000B04888839983AA83BB83BC01CD019F7754
:10216000DF91CF91FF90EF90DF90CF90BF90AF9035
:102170009F908F9008958F929F92AF92BF92CF922F
:10218000DF92EF92FF9260911002709111028091A4
:10219000120290911302611571058105910521F4D8
:1021A00064E279ED8BE597E02DE133EF41E050E01B
:1021B00058D049015A019B01AC01A7EAB1E46DD0A6
:1021C0006B017C01ACEEB4EFA501940172D0DC018F
:1021D000CB018C0D9D1DAE1DBF1DB7FF03C0019728
:1021E000A109B0488093100290931102A0931202AB
:1021F000B0931302BC01CD019F77FF90EF90DF9069
:10220000CF90BF90AF909F908F90089560931002F1
:102210007093110280931202909313020895A1E229
:102220001A2EAA1BBB1BFD010DC0AA1FBB1FEE1F50
:10223000FF1FA217B307E407F50720F0A21BB30B9B
:10224000E40BF50B661F771F881F991F1A9469F717
:1022500060957095809590959B01AC01BD01CF0173
:102260000895052E97FB16F400940FD057FD05D066
:10227000D6DF07FC02D046F408C050954095309553
:1022800021953F4F4F4F5F4F0895909580957095E2
:1022900061957F4F8F4F9F4F08950FD0A59F900D51
:1022A000B49F900DA49F800D911D11240895B7FF38
:1022B000F4CFF3DF821B930B0895A29FB001B39F6D
:1022C000C001A39F700D811D1124911DB29F700D3F
:1022D000811D1124911D089597FB072E16F400947B
:1022E00006D077FD08D013D007FC05D03EF49095BA
:1022F00081959F4F0895709561957F4F0895EE0FDA
:10230000FF1F881F8BBF0790F691E02D1994AA1B21
:10231000BB1B51E107C0AA1FBB1FA617B70710F0D0
:10232000A61BB70B881F991F5A95A9F78095909502
:10233000BC01CD0108950F931F93CF93DF9382309B
:10234000910510F482E090E0E0916205F091630560
:1023500020E030E0A0E0B0E0309719F140815181F9
:102360000281138148175907C8F08417950769F44B
:10237000109731F012960C93129713961C9327C066
:10238000009362051093630522C02115310519F0F1
:102390004217530718F49A01BD01EF01DF01F8015C
:1023A000DBCF21153105F9F0281B390B243031051D
:1023B00080F48A819B816115710521F0FB01938373
:1023C000828304C09093630580936205FE01329678
:1023D00044C0FE01E20FF31F819391932250310913
:1023E000398328833AC02091600530916105232B01
:1023F00041F4209116023091170230936105209329
:10240000600520911402309115022115310541F427
:102410002DB73EB74091180250911902241B350B7D
:10242000E0916005F0916105E217F307A0F42E1B1F
:102430003F0B2817390778F0AC014E5F5F4F241728
:10244000350748F04E0F5F1F5093610540936005BC
:102450008193919302C0E0E0F0E0CF01DF91CF9152
:102460001F910F910895CF93DF93009709F481C0D6
:10247000FC01329713821282A0916205B09163052C
:10248000109781F420813181820F931F2091600584
:10249000309161052817390751F5F0936105E093F4
:1024A000600567C0ED0120E030E0CE17DF0740F4A3
:1024B0004A815B819E0141155105F1F0EA01F5CF9A
:1024C000D383C28340815181840F951FC817D907D8
:1024D00059F488819981840F951F02969183808396
:1024E0008A819B81938382832115310529F4F0939E
:1024F0006305E09362053DC0E901FB83EA834991EE
:102500005991C40FD51FEC17FD0761F480819181AB
:10251000840F951F0296E9019983888382819381B4
:102520009B838A83E0E0F0E012968D919C91139753
:10253000009719F0FD01DC01F7CF8D919C91119767
:102540009D012E5F3F4F820F931F209160053091B8
:1025500061052817390769F4309729F4109263054B
:102560001092620502C013821282B0936105A0939B
:102570006005DF91CF9108956F927F928F929F9225
:10258000AF92BF92CF92DF92EF92FF920F931F9381
:10259000CF93DF93009781F4CB01DF91CF911F910F
:1025A0000F91FF90EF90DF90CF90BF90AF909F90F2
:1025B0008F907F906F90BFCEFC01E60FF71F9C01BC
:1025C00022503109E217F30708F4A5C0EC01D90144
:1025D0000D911C91119706171707A8F005301105EA
:1025E00008F497C0C80104978617970708F491C0AC
:1025F00002501109061B170B019311936D937C93E5
:10260000CF0131DF86C05B01A01AB10A4C01800EF8
:10261000911EA0916205B0916305612C712CE12C93
:10262000F12C109709F446C08D919C911197A81533
:10263000B905B1F56C0142E0C40ED11CCA14DB042B
:1026400078F14C018A189B08640142E0C40ED11C49
:102650001296BC9012971396AC91B5E0CB16D104AC
:1026600040F0B282A38391828082D9016D937C93E2
:1026700009C00E5F1F4F800F911FF9019183808366
:10268000EB2DFA2FE114F10431F0D7011396FC93EE
:10269000EE9312973EC0F0936305E093620539C054
:1026A0006816790608F43C017D0112960D90BC91E4
:1026B000A02DB7CF8091600590916105881699068D
:1026C000E1F466167706C8F4809114029091150221
:1026D000009741F48DB79EB74091180250911902AE
:1026E000841B950BE817F907B0F4F0936105E093AC
:1026F0006005F901718360830CC0CB011CDE7C0195
:10270000009749F0A801BE011BD0CE01ACDEC70185
:1027100004C0CE0102C080E090E0DF91CF911F9114
:102720000F91FF90EF90DF90CF90BF90AF909F9070
:102730008F907F906F90089581E090E0F89410C0A2
:10274000FB01DC0102C001900D9241505040D8F7CE
:102750000895FB01DC0101900D920020E1F708953E
:1027600011E0C7E2D1E000E005C0802FFE01C7DD27
:102770002196011DC832D10780E00807B1F7F8940F
:02278000FFCF89
:102782004E024E024E024E024E024E024E024E02C7
:1027920001000000000064058000000000008E02BD
:1027A200BF095A01DA028B0169017D0172656D6F01
:1027B20076654C6566745065646F6D65746572000C
:1027C20072656D6F766552696768745065646F6D86
:1027D2006574657200616464526967687450656407
:1027E2006F6D657465720063757272656E7452699D
:1027F20067687447726964436F756E743A006375F3
:102802007272656E744C65667447726964436F7563
:102812006E743A006F6E4C6566745065646F6D65D8
:102822007465723A2063616C6C206261636B006F45
:102832006E5F6261636B5F72696768745F63726126
:102842007368006F6E5F666F72776172645F6C654A
:1028520066745F637261736820006F6E5F666F7289
:10286200776172645F6C6566745F6372617368201E
:1028720066696E736869007475726E52696768740E
:102882000072696768743A006F6E5F666F72776193
:1028920072645F72696768745F6372617368006310
:1028A200622D2D2D2D2D2D2D2D2D2D2D000D0A00BE
:1028B200666F72776172643A006164644C656C742D
:1028C2005065646F6D65746572006C6566743A007C
:1028D200564D4450565F317C315F564D4450560A36
:1028E20000564D4450525F0077656C636F6D6520F2
:1028F200746F20636C65616E20726F626F74007317
:10290200706565647570007370656564646F776E79
:102912000073706565646174006C6566740074753B
:10292200726E6C65667461740072696768740074B3
:1029320075726E7269676874617400666F7277612E
:0829420072640073746F7000F1
:020000023000CC
:10E000000D9489F10D94B2F10D94B2F10D94B2F129
:10E010000D94B2F10D94B2F10D94B2F10D94B2F1F0
:10E020000D94B2F10D94B2F10D94B2F10D94B2F1E0
:10E030000D94B2F10D94B2F10D94B2F10D94B2F1D0
:10E040000D94B2F10D94B2F10D94B2F10D94B2F1C0
:10E050000D94B2F10D94B2F10D94B2F10D94B2F1B0
:10E060000D94B2F10D94B2F10D94B2F10D94B2F1A0
:10E070000D94B2F10D94B2F10D94B2F10D94B2F190
:10E080000D94B2F10D94B2F10D94B2F10D94B2F180
:10E090000D94B2F10D94B2F10D94B2F10D94B2F170
:10E0A0000D94B2F10D94B2F10D94B2F10D94B2F160
:10E0B0000D94B2F10D94B2F10D94B2F10D94B2F150
:10E0C0000D94B2F10D94B2F10D94B2F10D94B2F140
:10E0D0000D94B2F10D94B2F10D94B2F10D94B2F130
:10E0E0000D94B2F141546D656761323536300041AF
:10E0F000726475696E6F206578706C6F72657220DE
:10E1000073746B3530305632206279204D4C530099
:10E11000426F6F746C6F616465723E004875683F52
:10E1200000436F6D70696C6564206F6E203D200048
:10E130004350552054797065202020203D20005FF9
:10E140005F4156525F415243485F5F3D2000415658
:10E1500052204C696243205665723D20004743437C
:10E160002056657273696F6E203D20004350552024
:10E1700049442020202020203D20004C6F7720663D
:10E18000757365202020203D20004869676820665F
:10E190007573652020203D200045787420667573D6
:10E1A00065202020203D20004C6F636B2066757336
:10E1B000652020203D20004D617220203720323024
:10E1C000313300312E362E3800342E332E350056A2
:10E1D00023202020414444522020206F7020636F70
:10E1E00064652020202020696E73747275637469E1
:10E1F0006F6E2061646472202020496E74657272B3
:10E20000757074006E6F20766563746F7200726A49
:10E210006D702020006A6D70200057686174207056
:10E220006F72743A00506F7274206E6F7420737541
:10E2300070706F72746564004D7573742062652030
:10E2400061206C6574746572002000577269747483
:10E25000696E672045450052656164696E672045B7
:10E26000450045452065727220636E743D00504F35
:10E27000525400303D5A65726F2061646472003FF1
:10E280003D43505520737461747300403D454550C3
:10E29000524F4D207465737400423D426C696E6B41
:10E2A000204C454400453D44756D70204545505215
:10E2B0004F4D00463D44756D7020464C415348001B
:10E2C000483D48656C70004C3D4C69737420492F83
:10E2D0004F20506F72747300513D51756974005234
:10E2E0003D44756D702052414D00563D73686F7707
:10E2F00020696E7465727275707420566563746FF0
:10E30000727300593D506F727420626C696E6B00BD
:10E310002A0011241FBECFEFD1E2DEBFCDBF01E046
:10E320000CBF12E0A0E0B2E0EEE1FDEF03E00BBFB6
:10E3300002C007900D92A030B107D9F712E0A0E01B
:10E34000B2E001C01D92AE30B107E1F70F9460F367
:10E350000D948DFE01E20EBF0FEF0DBF11241FBE05
:10E360000D9460F30D9400F020E030E040ED57E0B4
:10E3700005C0FA013197F1F72F5F3F4F2817390792
:10E38000C0F308959C01260F311DC901A0E0B0E043
:10E390002F5F3F4FABBFFC018791882361F08093D3
:10E3A000C6008091C00086FFFCCF8091C0008064D1
:10E3B0008093C000EACF08958DE08093C6008091DD
:10E3C000C00086FFFCCF8091C00080648093C000B5
:10E3D0008AE08093C6008091C00086FFFCCF8091C8
:10E3E000C00080648093C00008950F94C2F10F9420
:10E3F000DCF10895FC019081992359F09093C600B7
:10E400008091C00086FFFCCF8091C0008064809323
:10E41000C0003196992379F70895282F982F929567
:10E420009F70892F805D8A3308F0895F8093C600D2
:10E430008091C00086FFFCCF8091C00080648093F3
:10E44000C000822F8F70982F905D9A3308F0995FEB
:10E450009093C6008091C00086FFFCCF8091C000E1
:10E4600080648093C00008959C01FB01853691056E
:10E470001CF46330710594F0C90164E670E00F94F8
:10E480002EFE605D7F4F6093C6008091C00086FFC6
:10E49000FCCF8091C00080648093C0002B30310598
:10E4A00014F43297B4F0C90164E670E00F942EFEC4
:10E4B0006AE070E00F942EFE605D7F4F6093C600AF
:10E4C0008091C00086FFFCCF8091C0008064809363
:10E4D000C000C9016AE070E00F942EFEC0968093E0
:10E4E000C6008091C00086FFFCCF8091C000806490
:10E4F0008093C00008951F93182F8EE692EE60E07F
:10E500000F94C2F11093C6008091C00086FFFCCF2B
:10E510008091C00080648093C0000F94DCF11F9153
:10E5200008952F923F924F925F926F927F928F92B7
:10E530009F92AF92BF92CF92DF92EF92FF920F9392
:10E540001F93DF93CF93CDB7DEB762970FB6F894E2
:10E55000DEBF0FBECDBF382E622ECA01DB015C01CB
:10E560006D01772420E2222E2E010894411C511CBB
:10E570008BC081E0A81680E0B80681E0C80680E084
:10E58000D80628F0C601AA27BB270F940DF2BB2797
:10E59000AD2D9C2D8B2D0F940DF28A2D0F940DF225
:10E5A0002092C6008091C00086FFFCCF8091C00001
:10E5B00080648093C0009DE29093C6008091C0006B
:10E5C00086FFFCCF8091C00080648093C0002092C1
:10E5D000C6008091C00086FFFCCF8091C00080649F
:10E5E0008093C00019828601750188249924A1E0D6
:10E5F0003A1651F03A1620F0B2E03B1661F409C029
:10E600000BBFF701779007C0C7010F9477FE782EF4
:10E6100002C0F7017080872D0F940DF22092C60082
:10E620008091C00086FFFCCF8091C0008064809301
:10E63000C000872D8052F401EF70F0708F3520F408
:10E64000E40DF51D708204C0E40DF51D8EE280839B
:10E650000894E11CF11C011D111D0894811C911CE2
:10E6600090E18916910409F0C2CF80E190E0A0E02A
:10E67000B0E0A80EB91ECA1EDB1E198AC2010F9493
:10E68000FAF10F94DCF16A94662009F072CF629679
:10E690000FB6F894DEBF0FBECDBFCF91DF911F91B3
:10E6A0000F91FF90EF90DF90CF90BF90AF909F9031
:10E6B0008F907F906F905F904F903F902F90089534
:10E6C0002F923F924F925F926F927F928F929F9282
:10E6D000AF92BF92CF92DF92EF92FF920F931F9370
:10E6E000DF93CF93CDB7DEB7CD53D1400FB6F894BB
:10E6F000DEBF0FBECDBF01E20EBF0FEF0DBF94B75F
:10E70000F894A89514BE80916000886180936000A1
:10E7100010926000789493FF05C0E0910002F091A0
:10E7200001021995279A2F9A8091C00082608093E8
:10E73000C00080E18093C40088E18093C1000000A4
:10E74000EE24FF24870144E0A42EB12CCC24DD2448
:10E7500024C0C5010197F1F70894E11CF11C011DCB
:10E76000111D21E2E2162EE4F20620E0020720E06D
:10E77000120718F031E0C32ED12CC801B70127ECE5
:10E780003BE140E050E00F9441FE611571058105C9
:10E79000910519F485B1805885B98091C00087FD35
:10E7A00003C0C114D104A9F2A6014F5F5F4FC25E3E
:10E7B000DE4F59834883CE51D140C25EDE4F8881FF
:10E7C0009981CE51D140019711F00D9410FEC05D9A
:10E7D000DE4F19821882C053D14060E0C15DDE4F28
:10E7E0001882CF52D14088249924C35DDE4F19820C
:10E7F0001882CD52D140C05EDE4F188219821A8233
:10E800001B82C052D140CE5CDE4F188219821A8220
:10E810001B82C253D140EE24FF2487010BBFF701B6
:10E8200007911691C45CDE4F19830883CC53D14005
:10E830000D940BFEC25EDE4F28813981CE51D1404E
:10E840002130310509F52091C600C25EDE4F1982E4
:10E850001882CE51D14022C02F5F3F4F4F4F5F4FA4
:10E86000213082E138078AE7480780E0580780F0C6
:10E87000C45CDE4FE881F981CC53D140EF5FFF4F9C
:10E8800019F0EE27FF27099420E030E040E050E047
:10E890008091C00087FFE0CF2091C600C35DDE4FAE
:10E8A00048815981CD52D1404F5F5F4FC35DDE4FEC
:10E8B00059834883CD52D140213209F063C64A3092
:10E8C000510508F05FC60894811C911C53E0851621
:10E8D000910409F059C600E010E018C081E280936D
:10E8E000C6008091C00086FFFCCF8091C00080648C
:10E8F0008093C0002F5F3F4F2931310579F70F9486
:10E90000DCF10F5F1F4F0530110519F020E030E0FA
:10E91000E5CF10920A0210920B0210920C02109294
:10E920000D02109206021092070210920802109235
:10E930000902109202021092030210920402109235
:10E9400005028FEE90EE60E00F94F5F180E191EE1C
:10E9500060E00F94C2F18091C00087FFFCCF9091DE
:10E96000C600903608F09F759032B8F09093C600BC
:10E970008091C00086FFFCCF8091C00080648093AE
:10E98000C000A0E2A093C6008091C00086FFFCCF2B
:10E990008091C00080648093C000983409F4D7C18E
:10E9A0009934B8F4923409F459C1933458F490333B
:10E9B00019F1903308F4E3C59F33A1F1903409F0C5
:10E9C000DEC5BDC0953409F470C1963409F0D7C5D1
:10E9D00098C1923509F42BC2933538F49C3409F46C
:10E9E000F5C1913509F0CBC518C2963509F445C279
:10E9F000993509F0C4C567C483E792EE62E00F94CD
:10EA0000F5F110920602109207021092080210927D
:10EA1000090210920A0210920B0210920C0210923C
:10EA20000D0213C18FE792EE62E00F94F5F18FEEC5
:10EA300090EE60E00F94F5F181E291EE60E00F94CA
:10EA4000C2F187EB91EE60E00F94F5F180E391EE77
:10EA500060E00F94C2F184EE90EE60E00F94F5F167
:10EA60008FE391EE60E00F94C2F186E090E061E008
:10EA700070E00F9434F20F94DCF18DE591EE60E0DC
:10EA80000F94C2F189EC91EE60E00F94F5F18EE401
:10EA900091EE60E00F94C2F183EC91EE60E00F9490
:10EAA000F5F18CE691EE60E00F94C2F18EE10F94E7
:10EAB0000DF288E90F940DF281E00F940DF20F949E
:10EAC000DCF18BE791EE60E00F94C2F119E0E0E039
:10EAD000F0E010935700E4918E2F0F940DF20F94F5
:10EAE000DCF18AE891EE60E00F94C2F1E3E0F0E03F
:10EAF00010935700E4918E2F0F940DF20F94DCF1D8
:10EB000089E991EE60E00F94C2F1E2E0F0E0109349
:10EB10005700E4918E2F0F940DF20F94DCF188EAE8
:10EB200091EE60E00F94C2F1E1E0F0E01093570045
:10EB30001491812F0F940DF20F94DCF107CF8BE825
:10EB400092EE62E00F94F5F18BE492EE60E00F94A8
:10EB5000F5F10F94DCF100E010E019C0C8016F2D51
:10EB60000F947FFEFF2031F489E492EE60E00F9471
:10EB7000C2F10BC0F092C6008091C00086FFFCCFAE
:10EB80008091C00080648093C0000F5F1F4FC80158
:10EB900081519F41A0E0B0E0ABBFFC01F790BAE229
:10EBA000FB1621F0E2E000301E07C1F60F94DCF105
:10EBB0000F94DCF187E592EE60E00F94F5F10F948D
:10EBC000DCF1CC24DD2400E010E01EC0C8010F946D
:10EBD00077FEF82E882331F489E492EE60E00F94FA
:10EBE000C2F10BC08093C6008091C00086FFFCCFAD
:10EBF0008091C00080648093C000FE1419F00894D6
:10EC0000C11CD11C0F5F1F4FC80181519F41A0E063
:10EC1000B0E0ABBFFC01E790FAE2EF1621F022E092
:10EC20000030120799F60F94DCF10F94DCF182E6C4
:10EC300092EE60E00F94C2F1C60161E070E00F94C3
:10EC400034F20F94DCF10F94DCF110920202109276
:10EC50000302109204021092050278CE89E992EE26
:10EC600062E00F94F5F1279A2F9A16C02F9880E052
:10EC700090E0E0EDF7E03197F1F7019684369105E9
:10EC8000C1F72F9A80E090E0E0EDF7E03197F1F7DF
:10EC9000019684369105C1F78091C00087FFE6CFC9
:10ECA0008091C00087FFFCCF64C485EA92EE62E0E9
:10ECB0000F94F5F140910202509103026091040219
:10ECC0007091050281E020E10F9491F2809102029F
:10ECD00090910302A0910402B091050280509F4FD1
:10ECE000AF4FBF4F8093020290930302A0930402A0
:10ECF000B093050280509041A040B04008F426CE69
:10ED0000A4CF83EB92EE62E00F94F5F140910602FE
:10ED100050910702609108027091090280E020E1A1
:10ED20000F9491F28091060290910702A09108023F
:10ED3000B091090280509F4FAF4FBF4F80930602A2
:10ED400090930702A0930802B0930902FFCD80ECD4
:10ED500092EE62E00F94F5F183E792EE60E00F949B
:10ED6000F5F18FE792EE60E00F94F5F18BE892EE0B
:10ED700060E00F94F5F189E992EE60E00F94F5F10F
:10ED800085EA92EE60E00F94F5F183EB92EE60E09D
:10ED90000F94F5F180EC92EE60E00F94F5F187ECC2
:10EDA00092EE60E00F94F5F188ED92EE60E00F9442
:10EDB000F5F18FED92EE60E00F94F5F18AEE92EEB0
:10EDC00060E00F94F5F183E093EEBDCD87EC92EE19
:10EDD00062E00F94F5F181E40F947BF282E40F94EA
:10EDE0007BF283E40F947BF284E40F947BF285E45E
:10EDF0000F947BF286E40F947BF287E40F947BF20E
:10EE000088E40F947BF28AE40F947BF28BE40F94F6
:10EE10007BF28CE40F947BF299CD88ED92EE62E068
:10EE20000F94F5F1772473948824992409C48FED05
:10EE300092EE62E00F94F5F140910A0250910B02BC
:10EE400060910C0270910D0282E020E10F9491F22A
:10EE500080910A0290910B02A0910C02B0910D02D8
:10EE600080509F4FAF4FBF4F80930A0290930B0289
:10EE7000A0930C02B0930D0269CD8AEE92EE62E08F
:10EE80000F94F5F184EE90EE60E00F94F5F18FECC5
:10EE900091EE60E00F94F5F1662477244301CC5D98
:10EEA000DE4F19821882C452D140D401C301B695F5
:10EEB000A79597958795CA5DDE4F88839983AA8326
:10EEC000BB83C652D140CC5DDE4FA881B981C4520C
:10EED000D1401196CC5DDE4FB983A883C452D14096
:10EEE000CD0162E070E00F9434F2B0E2B093C6005E
:10EEF0008091C00086FFFCCF8091C0008064809329
:10EF0000C000EDE2E093C6008091C00086FFFCCF18
:10EF10008091C00080648093C000F0E2F093C6004E
:10EF20008091C00086FFFCCF8091C00080648093F8
:10EF3000C000CA5DDE4FE880F9800A811B81C6529D
:10EF4000D140BB27A12F902F8F2D0F940DF2CA5DBA
:10EF5000DE4F8881C652D1400F940DF2B0E2FB2EF5
:10EF6000F092C6008091C00086FFFCCF8091C00067
:10EF700080648093C0000DE30093C6008091C000C0
:10EF800086FFFCCF8091C00080648093C00010E2B7
:10EF90001093C6008091C00086FFFCCF8091C00016
:10EFA00080648093C0008BBEF3012791C65DDE4F65
:10EFB0002883CA52D140A22EBB24CC24DD2408943D
:10EFC000611C711C811C911C8BBEF3018791282E42
:10EFD0003324442455240894611C711C811C911C09
:10EFE0008BBEF3013791C55DDE4F3883CB52D140E4
:10EFF0000894611C711C811C911C8BBEF30147910C
:10F00000C45DDE4F4883CC52D140ADEFEA2EAFEF66
:10F01000FA2EAFEF0A2FAFEF1A2F6E0C7F1C801E57
:10F02000911E142D032DF22CEE24EA0CFB1C0C1D5A
:10F030001D1D0F940DF220E22093C6008091C000A8
:10F0400086FFFCCF8091C00080648093C000C65DC5
:10F05000DE4F8881CA52D1400F940DF230E23093D6
:10F06000C6008091C00086FFFCCF8091C000806404
:10F070008093C000C45DDE4F8881CC52D1400F9494
:10F080000DF240E24093C6008091C00086FFFCCFA5
:10F090008091C00080648093C000C55DDE4F888190
:10F0A000CB52D1400F940DF250E25093C6008091A4
:10F0B000C00086FFFCCF8091C00080648093C000B8
:10F0C0008FEFE8168FEFF80680E0080780E018075A
:10F0D00031F484E092EE60E00F94C2F1DFC0D80119
:10F0E000C7018070907CA070B0708050904CA040A0
:10F0F000B040D1F52FEF3FE340E050E0E222F322B1
:10F1000004231523CA5DDE4FA880B980CA80DB8046
:10F11000C652D140AE0CBF1CC01ED11EAA0CBB1CD7
:10F12000CC1CDD1C8EE092EE60E00F94C2F1BB2798
:10F13000A12F902F8F2D0F940DF28E2D0F940DF285
:10F1400030E23093C6008091C00086FFFCCF8091F2
:10F15000C00080648093C0004EE34093C60080915D
:10F16000C00086FFFCCF87C08EE09EEFA0E0B0E03D
:10F17000E822F9220A231B239CE0E91694E9F90608
:10F1800090E0090790E0190709F088C0C45DDE4FE0
:10F19000A881CC52D140EA2EFF2400E010E0102FCD
:10F1A0000F2DFE2CEE24C55DDE4FB881CB52D14031
:10F1B000EB0EF11C011D111DD601C501817090706F
:10F1C000A070B070DC0199278827E80EF91E0A1F8D
:10F1D0001B1F20EF30E040E050E0A222B322C42207
:10F1E000D52241E1AA0CBB1CCC1CDD1C4A95D1F7F1
:10F1F000EA0CFB1C0C1D1D1D81E090E0A0E0B0E0BE
:10F20000282239224A225B2235E1220C331C441C7D
:10F21000551C3A95D1F7E20CF31C041D151D57013E
:10F220006801AA0CBB1CCC1CDD1C85E192EE60E0E1
:10F230000F94C2F1C801AA27BB270F940DF2BB2778
:10F24000A12F902F8F2D0F940DF28E2D0F940DF274
:10F2500090E29093C6008091C00086FFFCCF809121
:10F26000C00080648093C000AEE3A093C60080918C
:10F27000C00086FFFCCF8091C00080648093C000F6
:10F28000C601AA27BB270F940DF2BB27AD2D9C2DDD
:10F290008B2D0F940DF28A2D0F940DF20F94DCF14B
:10F2A000CC5DDE4FE881F981C452D140F99709F471
:10F2B0004DCBF4E0EF2EF12C012D112D6E0C7F1CA7
:10F2C000801E911EF2CD83E093EE62E00F94F5F183
:10F2D0008AE192EE60E00F94C2F18091C00087FF56
:10F2E000FCCF1091C6001F751093C6008091C0001E
:10F2F00086FFFCCF8091C00080648093C0000F9493
:10F30000DCF1812F81548A3108F036C1163409F4BA
:10F3100095C0173490F4133409F44EC0143430F40B
:10F320001134F1F0123409F01DC130C0143409F465
:10F3300059C0153409F016C16BC01A3409F4C4C0A1
:10F340001B3438F4173409F48FC0183409F00AC19B
:10F35000A1C01B3409F4D2C01C3409F003C1E8C0B9
:10F360008FEF81B90DC082B1809582B980E090E0C5
:10F37000E0EDF7E03197F1F70196883C9105C1F790
:10F380008091C00087FFEFCF12B8EFC08FEF84B934
:10F390000DC085B1809585B980E090E0E0EDF7E0A3
:10F3A0003197F1F70196883C9105C1F78091C00033
:10F3B00087FFEFCF15B8D9C08FEF87B90DC088B1DF
:10F3C000809588B980E090E0E0EDF7E03197F1F7C3
:10F3D0000196883C9105C1F78091C00087FFEFCF6F
:10F3E00018B8C3C08FEF8AB90DC08BB180958BB9A7
:10F3F00080E090E0E0EDF7E03197F1F70196883C8E
:10F400009105C1F78091C00087FFEFCF1BB8ADC059
:10F410008FEF8DB90DC08EB180958EB980E090E0F0
:10F42000E0EDF7E03197F1F70196883C9105C1F7DF
:10F430008091C00087FFEFCF1EB897C08FEF80BBD1
:10F440000DC081B3809581BB80E090E0E0EDF7E0F6
:10F450003197F1F70196883C9105C1F78091C00082
:10F4600087FFEFCF11BA81C08FEF83BB0DC084B38C
:10F47000809584BB80E090E0E0EDF7E03197F1F714
:10F480000196883C9105C1F78091C00087FFEFCFBE
:10F4900014BA6BC08FEF809301010FC080910201FD
:10F4A00080958093020180E090E0E0EDF7E03197F5
:10F4B000F1F70196883C9105C1F78091C00087FF64
:10F4C000EDCF1092020151C08FEF809304010FC065
:10F4D0008091050180958093050180E090E0E0ED4A
:10F4E000F7E03197F1F70196883C9105C1F78091DB
:10F4F000C00087FFEDCF1092050137C08FEF8093DA
:10F5000007010FC08091080180958093080180E079
:10F5100090E0E0EDF7E03197F1F70196883C910536
:10F52000C1F78091C00087FFEDCF109208011DC088
:10F530008FEF80930A010FC080910B01809580931B
:10F540000B0180E090E0E0EDF7E03197F1F70196F4
:10F55000883C9105C1F78091C00087FFEDCF1092E4
:10F560000B0103C085E292EEEEC98091C00087FFD7
:10F57000FCCF8091C600EAC988E392EEE4C98CE131
:10F5800091EEE1C988249924933011F1943028F444
:10F59000913089F09230B8F408C0953061F195301F
:10F5A000F0F0963009F048C043C02B3109F042C951
:10F5B00091E06BE13FC96227C15DDE4F2883CF52E6
:10F5C000D14092E037C9B22FA0E0622793E032C960
:10F5D000822F90E0A82BB92B622794E02BC92E3004
:10F5E00009F039C3622795E0C05DDE4F19821882A9
:10F5F000C053D1401FC9E1E0F0E0EC0FFD1FC05D3A
:10F60000DE4F08811981C053D140E00FF11F2083E4
:10F610000F5F1F4FC05DDE4F19830883C053D14079
:10F6200062270A171B0709F005C9D80196E002C92D
:10F63000261709F010C303C0973009F0FBC87724E0
:10F640009981933109F412C19431C8F4963009F4C8
:10F65000D8C0973050F4923009F406C1933009F4C1
:10F660006DC0913009F059C253C0913109F477C08F
:10F67000923108F0BBC0903109F04FC2F5C098310B
:10F6800009F487C0993150F4953109F4EFC09531F0
:10F6900008F4C6C1963109F040C2C2C19A3109F4DA
:10F6A0006CC09A3108F491C09B3109F45BC09D3164
:10F6B00009F033C29D81903359F48F81882311F46E
:10F6C0009EE11CC0813011F091E018C098E916C08D
:10F6D000892F807591F0903539F4E0E0F0E089E011
:10F6E0008093570094910AC0983539F4E3E0F0E034
:10F6F00089E080935700949101C090E01A821B82A8
:10F700008D818C831D829E831F8227E030E009C299
:10F710001A8288E08B8381E48C8386E58D8382E581
:10F720008E8389E48F8383E5888780E589878FE5E9
:10F730008A8782E38B872BE030E0F3C18A818139AD
:10F7400041F0823941F0803911F48FE005C080E04A
:10F7500003C082E001C08AE01A828B8344C0772410
:10F76000739482C08D81882311F48EE12CC0813086
:10F7700011F081E028C088E926C01A82E1E0F0E0BB
:10F7800089E08093570084918B831C8224E030E0D1
:10F79000C8C18B81803589F48C81883039F4E2E0EE
:10F7A000F0E089E08093570084910DC0E0E0F0E044
:10F7B00089E080935700849106C0E3E0F0E089E09F
:10F7C0008093570084911A82DFCF8D81836C99E0FA
:10F7D000E1E0F0E0082E90935700E89507B600FCB2
:10F7E000FDCF1A821B8223E030E09BC180EC8A832C
:10F7F000CE5CDE4F188219821A821B82C253D1401E
:10F800008EC18A8190E0A0E0B0E0582F44273327D2
:10F8100022278B8190E0A0E0B0E0DC0199278827C7
:10F82000282B392B4A2B5B2B8D8190E0A0E0B0E098
:10F83000282B392B4A2B5B2B8C8190E0A0E0B0E089
:10F84000BA2FA92F982F8827282B392B4A2B5B2BCF
:10F85000220F331F441F551FC05EDE4F288339839C
:10F860004A835B83C052D1401A8259C13A81C95C34
:10F87000DE4F3883C753D140CA5CDE4F1882C6536F
:10F88000D1408B81C82EDD24CA5CDE4F488159816E
:10F89000C653D140C42AD52A933109F082C0CE5C28
:10F8A000DE4F88819981AA81BB81C253D1408050AB
:10F8B000904CA340B04030F583E0CE5CDE4FE88052
:10F8C000F9800A811B81C253D140F70100935B008C
:10F8D00080935700E89507B600FCFDCFCE5CDE4F65
:10F8E000088119812A813B81C253D14000501F4FAA
:10F8F0002F4F3F4FCE5CDE4F088319832A833B8313
:10F90000C253D140C05EDE4F488159816A817B81FC
:10F91000C052D140DE011B9631E08C9111962C91A2
:10F9200011971296C75CDE4F2883C953D140C85C3B
:10F93000DE4F1882C853D14090E0C85CDE4FE881AA
:10F94000F981C853D1408E2B9F2B0C01FA01609393
:10F950005B0030935700E89511244E5F5F4F6F4F67
:10F960007F4F0EEFE02E0FEFF02ECE0CDF1CC114F8
:10F97000D10499F685E0C05EDE4F088119812A81A5
:10F980003B81C052D140F80120935B008093570027
:10F99000E89507B600FCFDCF81E180935700E8951C
:10F9A00035C0C05EDE4F88819981AA81BB81C0527B
:10F9B000D140B695A795979587957C018601ABE0D8
:10F9C000AA2EB12CAC0EBD1E0BC0D5016D915D01F0
:10F9D000C7010F947FFE0894E11CF11C01501040F8
:10F9E0000115110591F7A60160E070E0440F551F65
:10F9F000661F771FC05EDE4FE880F9800A811B8199
:10FA0000C052D1404E0D5F1D601F711F1A82C05E33
:10FA1000DE4F488359836A837B83C052D1407FC0C5
:10FA2000FA80C55CDE4FF882CB53D140C65CDE4F16
:10FA30001882CA53D1408B81C82EDD24C65CDE4FAC
:10FA400008811981CA53D140C02AD12A1A828981DA
:10FA5000BE016D5F7F4F843121F59601C05EDE4FA0
:10FA6000E880F9800A811B81C052D1400BBFF701A9
:10FA700087919691DB018C9311969C936E5F7F4FDB
:10FA8000D801C7010296A11DB11DC05EDE4F88835B
:10FA90009983AA83BB83C052D14022503040F1F6F3
:10FAA00036C0C05EDE4F288139814A815B81C052F9
:10FAB000D1400894C108D108760100E010E0089414
:10FAC000C11CD11C0894E11CF11C011D111DE20E8A
:10FAD000F31E041F151F21BDBB27A52F942F832FB5
:10FAE00082BD2F5F3F4F4F4F5F4FF89A80B5DB01CC
:10FAF0008D93BD012E153F054007510761F7C05E8C
:10FB0000DE4F288339834A835B83C052D1409601FC
:10FB10002D5F3F4FFB01108204C080EC8A8322E0FE
:10FB200030E08BE18093C6008091C00086FFFCCF5F
:10FB30008091C00080648093C000C15DDE4FF88179
:10FB4000CF52D140F093C6008091C00086FFFCCF19
:10FB50008091C00080648093C000432F3093C60022
:10FB60008091C00086FFFCCF8091C00080648093AC
:10FB7000C000922F2093C6008091C00086FFFCCF6A
:10FB80008091C00080648093C0008EE08093C600A6
:10FB90008091C00086FFFCCF8091C000806480937C
:10FBA000C00065E1C15DDE4FE880CF52D1406E25D7
:10FBB00069276427FE01319610C090819093C6009A
:10FBC0008091C00086FFFCCF31968091C000806498
:10FBD0008093C0006927215030402115310569F715
:10FBE0006093C6008091C00086FFFCCF8091C0006A
:10FBF00080648093C00085B1805885B9772081F4F6
:10FC0000C15DDE4F0881CF52D1400F5FC15DDE4F35
:10FC10000883CF52D14090E0A0E0B0E00D941AF4F8
:10FC200027982F9880E090E020ED37E0F901319798
:10FC3000F1F7019684369105C9F700008091C00064
:10FC40008D7F8093C00081E180935700E895EE2777
:10FC5000FF270994FFCF90E00D941AF497FB092E2B
:10FC600007260AD077FD04D02ED006D000201AF443
:10FC7000709561957F4F0895F6F7909581959F4F08
:10FC80000895A1E21A2EAA1BBB1BFD010DC0AA1FDD
:10FC9000BB1FEE1FFF1FA217B307E407F50720F0F5
:10FCA000A21BB30BE40BF50B661F771F881F991F70
:10FCB0001A9469F760957095809590959B01AC01B9
:10FCC000BD01CF010895AA1BBB1B51E107C0AA1FAC
:10FCD000BB1FA617B70710F0A61BB70B881F991FED
:10FCE0005A95A9F780959095BC01CD010895F99991
:10FCF000FECF92BD81BDF89A992780B50895262F31
:10FD0000F999FECF1FBA92BD81BD20BD0FB6F89400
:0EFD1000FA9AF99A0FBE01960895F894FFCF63
:040000033000E000E9
:00000001FF